:020000040800F2
:10000000D84C002075020008E94D00085945000849
:10001000E54D00086D040008397D0008000000006F
:10002000000000000000000000000000FD4D00087E
:100030005505000800000000F94D0008014E0008B9
:100040008F0200088F0200088F0200088F0200084C
:100050008F0200088F020008590500088F0200086F
:100060008F02000861050008690500088F0200087A
:10007000F5040008010500088F0200080D050008BE
:100080008F0200088F0200088F0200088F0200080C
:10009000710400087D0400088F0200087105000843
:1000A0008F0200088F0200088F0200088F020008EC
:1000B0008F0200088F020008C54E00088F0200085A
:1000C0008F0200088F0200088F0200088F020008CC
:1000D0008F020008E55500088F020008F15500085E
:1000E0008F0200088F0200088F0200088F020008AC
:1000F0008F0200088F0200088F0200088F0200089C
:100100008F0200088F020008D14E00088F020008FD
:100110008F0200088F0200088F0200088F0200087B
:100120008F020008190500082505000831050008A0
:100130008F0200088F0200088F0200088F0200085B
:1001400089040008950400088F020008ED4D00089E
:100150003D050008490500088F020008FD5500080C
:100160008F0200088F0200088F0200088F0200082B
:100170008F0200088F0200088F02000800000000B4
:100180008F0200088F02000800F002F800F062F809
:1001900014A696E8000CB244B344DA4501D100F04D
:1001A00059F8BAE80F000FA696E83000A5EB040551
:1001B00004EB0607AAEB0704A7F101074FEA1515A0
:1001C0004FEA3414A4F10104AC4201D300F042F828
:1001D00013F0010F18BFFB1A43F0010300F001F800
:1001E000DBE7184780890000A08900000A4410F866
:1001F000014B14F00F0508BF10F8015B240908BF7C
:1002000010F8014B6D1E05D010F8013B6D1E01F872
:10021000013BF9D1641E03D0641E01F8015BFBD1E0
:100220009142E4D37047000070470000002300248F
:1002300000250026103A28BF78C1FBD8520728BFF6
:1002400030C148BF0B6070471FB508F046FC1FBDAA
:1002500010B510BD00F0D4F81146FFF7F5FF08F017
:1002600017FC00F0F2F803B4FFF7F2FF03BC00F054
:10027000F5F800000948804709480047FEE7FEE717
:10028000FEE7FEE7FEE7FEE7FEE7FEE7FEE7FEE746
:1002900004480549054A064B70470000B14E000866
:1002A00089010008D82E0020D84C0020D83D00201D
:1002B000D83D002053EA020C00F069802DE9F04B94
:1002C0004FF00006002B1FBFB3FA83F503FA05F4C5
:1002D00024FA05F65E4012BF1643B2FA82F502FA1E
:1002E00005F4C5F120051EBF22FA05FC44EA0C0402
:1002F000203556EA044C4FEA144418BF641C4FF0F2
:1003000000084FF00009904271EB030C39D300292B
:1003100019BFB1FA81F701FA07F6B0FA80F700FACF
:1003200007F6C7F120071EBF20FA07FC46EA0C06B5
:100330002037B6FBF4FCA7EB0507103F07F01F0BB7
:10034000CBF120062CFA06F60CFA0BFB44BFB346A1
:100350000026202FA4BF5E464FF0000B5BEA060C80
:1003600008BF4FF0010B19EB0B0948EB0608ABFB7C
:10037000027C06FB02CC0BFB03CCC01B71EB0C0117
:10038000C1E70B46024641464846BDE8F08B13B52F
:10039000084318BF4FF0FF300146AFF30080BDE8BF
:1003A0001C4070474FF0000200B513469446964635
:1003B000203922BFA0E80C50A0E80C50B1F1200178
:1003C000BFF4F7AF090728BFA0E80C5048BF0CC026
:1003D0005DF804EB890028BF40F8042B08BF704784
:1003E00048BF20F8022B11F0804F18BF00F8012BF6
:1003F00070477047704770470048704738060020C4
:100400007546FFF7F9FFAE4605006946534620F0F2
:100410000700854618B020B5FFF73AFFBDE8204039
:100420004FF000064FF000074FF000084FF0000BB0
:10043000AC46ACE8C009ACE8C009ACE8C009ACE81F
:10044000C00921F007018D46704710B50446AFF38F
:1004500000802046BDE81040FFF705BF0149182085
:10046000ABBEFEE72600020070470000FEE700007A
:1004700042F2B430C2F2000000F0F6B942F2B430F9
:10048000C2F2000000F0F0B942F2DC30C2F200002B
:1004900000F0EAB942F2DC30C2F2000000F0E4B948
:1004A000002070470020704710B542F2D804C2F215
:1004B000000441F6D801C2F200012046002205F0F6
:1004C00067FA41F2D801C2F20001204605F052FA63
:1004D000002010BD10B542F2D804C2F2000401465B
:1004E000204605F047FA204605F01EFA002010BD10
:1004F0000020704742F2E450C2F2000000F000BD5C
:1005000042F20440C2F2000000F0FABC42F2644041
:10051000C2F2000000F0F4BC42F24460C2F20000FB
:1005200000F0EEBC42F2C440C2F2000000F0E8BCB1
:1005300042F22450C2F2000000F0E2BC42F28450C9
:10054000C2F2000000F0DCBC42F2A460C2F2000083
:1005500000F0D6BC70470000012000F0CDBE0000C6
:10056000082000F0C9BE0000102000F0C5BE000049
:10057000202000F0C1BE000072B600BFFEE7000000
:1005800090F82020013A012A08D8006800F11402EE
:100590000020136819431160704700BF00F1240266
:1005A00001204FF480211368194311607047000047
:1005B00010B590F820E0D0F800C0AEF1010EBEF109
:1005C000010FDCF808E011D81EF0E05F18D0CEF380
:1005D00001640120A04018608B68DBB1D1F804E011
:1005E000C86840EACE0040EA030E17E000F1240399
:1005F00001204FF480211A681143196010BD00BF1B
:1006000000F1240301204FF400111A68114319600E
:1006100010BD00BF0868CB6843EA405E0CF5C070AF
:1006200000EB0413240140F804E00C69184640F87C
:10063000044F097D012903D1016841F480710160F3
:1006400050680121D8601068986000201A68114332
:10065000196010BD90F82020013A012A30D8B0B5B9
:1006600046F20060C4F20000026842F0010202603B
:10067000026822F47C520260D1F814E0CC694A6A24
:100680000368012C43EA022202600EF01F024FF0C1
:10069000010303FA02F2C3696FEA020C23EA0203C0
:1006A000C36113D02CBBC36803EA0C03C360CB68DF
:1006B0008C8844EA034300EBCE0423640B4611E02C
:1006C000416A41F48021416201207047C3681343AD
:1006D000C3600B688C8844EA034300EBCE042364B8
:1006E00001F10C038C681B8843EA044300EBCE0441
:1006F000636443688D6943EA0204D1F810E0096A33
:10070000002D08BF03EA0C0444604369BEF1000FEA
:1007100043EA020408BF03EA0C040129446102D140
:10072000C1691143C161016821F00101016000202C
:10073000B0BD000070470000B0B590F82040013C0B
:10074000012C7DD8D0F800C000290CBFDCF80C408B
:10075000DCF81040A4077DD00CF5D8754FEA011CD9
:1007600055F80C4014F00404946055F80CE005EBC7
:10077000011C19BF4FEADE0555604FEA5E55156052
:10078000DCF80050E64605F00205D5605EF8044F3F
:1007900024075ABFDEF8004004F00F040824146157
:1007A000DEF800400029C4F307249461DEF800500D
:1007B0004FEA15455561DCF808201A70026802EB13
:1007C0000112D2F8B8214FEA12225A70026802EBE5
:1007D0000112D2F8B8214FEA12429A70026802EB75
:1007E0000112D2F8B8214FEA1262DA70026802EB05
:1007F0000112D2F8BC211A71026802EB0112D2F880
:10080000BC214FEA12225A71026802EB0112D2F89F
:10081000BC214FEA12429A71026802EB0112D2F82F
:10082000BC214FEA1262DA7100680CBF00F10C01C2
:1008300000F11001002020220B681A430A60B0BDAD
:1008400000F1240101204FF480220B681A430A6052
:10085000B0BD00BF00F1240101204FF400120B686D
:100860001A430A60B0BD00002DE9F04F81B0044684
:1008700000684669D0F804908768D0F80CB0D0F8CA
:1008800010A0D0F81880F10704D1002530071DD43E
:1008900024E000BFF90710D00121BA07816009D414
:1008A000780700F1AF80380700F1B680204600F0ED
:1008B000BFFA02E0204600F0BDFA0025F80500F17D
:1008C0008780F80300F1B180300707D51BF01000D6
:1008D00004D0206845F400751021C160700708D568
:1008E0001BF0080005D020680821C160204600F0F8
:1008F000FFF9B00706D52068C068800702D02046FF
:1009000000F0F8F9700607D51AF0100004D020683E
:1009100045F4806510210161B00608D51AF0080081
:1009200005D0206808210161204600F019FAF00680
:1009300006D520680069800702D0204600F012FA30
:10094000B00308D519F0100005D0206810214160CF
:10095000204600F03DFAF00308D519F0080005D054
:10096000206808214160204600F06EFA300440F112
:100970009B805FEA497040F1948006F4807008EA39
:10098000102028435FEA8871014648BF41F0020108
:10099000B20558BF01465FEA48700D4648BF45F0B2
:1009A0000405700558BF0D46300540F17A8018F0F7
:1009B000700000F076801038000905286CD8DFE858
:1009C00000F003655D61596945F0080564E000BF0A
:1009D00020684FF48071BA0581600BD4780515D476
:1009E00038051DD4204600F027FAF8037FF56CAFD8
:1009F0001BE000BF204600F021FAF8037FF564AF4A
:100A000013E000BF4FF4006558E700BF05F500553F
:100A1000F8037FF559AF08E04FF480554EE700BF6B
:100A200005F58045F8037FF54FAF20684FF480311E
:100A3000BA0381600AD4780310D4380314D4204652
:100A400000F0FEF930073FF541AF47E7204600F0E0
:100A5000F9F930073FF53AAF40E700BF05F500452B
:100A600030073FF533AF39E705F5803530073FF5FF
:100A70002DAF33E745F080050EE000BF45F02005BF
:100A80000AE000BF45F0400506E000BF45F0100554
:100A900002E000BF45F480752068816921F0700193
:100AA000816120680421416055B1606A40EA050116
:100AB0002046616201B0BDE8F04FFFF73BBE00BFCA
:100AC00001B0BDE8F08F0000002804BF012070478E
:100AD000B0B5044690F8200010B9204600F06EF83A
:100AE0002068016841F00101016000F0E7FC054663
:100AF00020684168C90705D100F0E0FC401B0B28C5
:100B0000F6D310E0016821F00201016000F0D6FC8C
:100B1000054600BF2068416889070DD500F0CEFC6E
:100B2000401B0B28F6D3606A052140F40030606258
:100B3000012084F82010B0BD217E0268012922F036
:100B4000800208BF80320260617E0268012922F0C3
:100B5000400208BF40320260A17E0268012922F0F3
:100B6000200208BF20320260E17E0268012922F0E3
:100B7000100218BF10320260217F0268012922F0A2
:100B8000080208BF08320260617F0268012922F072
:100B9000040208BF04320260D4E901C2D4E903357B
:100BA00061691A432A431143ACF101021143C16147
:100BB00000200121606284F82010B0BDB0B586B07D
:100BC000006846F60002C4F2000200219042CDE91E
:100BD0000411CDE90211019136D046F20041C4F270
:100BE0000001884240F0828040F26071C2F2000150
:100BF0000A6843F64000C4F20200531C0B6052B96D
:100C000000210091016841F000710160016801F06C
:100C10000071009100990021009150F8101C1524DA
:100C200041F0080140F8101C50F8100C142500F099
:100C300008000090009840F20040C4F2020000F565
:100C40000060032136E000BF43F64000C4F202001A
:100C50000091016841F080610160016801F08061EC
:100C60000091009940F26071C2F200010A68531CC1
:100C70000B6052B900210091016841F000710160E0
:100C8000016801F00071009100990021009150F875
:100C9000101C412441F0020140F8101C50F8100CC7
:100CA000402500F002000090009840F200406021D2
:100CB000C4F202000191022102910021039103215B
:100CC00004910921059101A900F022FB2846002189
:100CD000002200F0C3FD284600F0AEFD20460021B2
:100CE000002200F0BBFD204600F0A6FD06B0B0BD1E
:100CF00070470000B0B5016846F60002C4F2000279
:100D0000914219D046F20042C4F20002914218BF4B
:100D1000B0BD40F2B065C2F200052C1D05F1200304
:100D200000212246FFF708FD05F128000168204652
:100D3000BDE8B040084700BF40F2B065C2F2000510
:100D400005F1300405F14C0300212246FFF7F4FCC5
:100D500005F1540001682046BDE8B0400847000096
:100D600070470000B0B5016846F60002C4F2000208
:100D7000914219D046F20042C4F20002914218BFDB
:100D8000B0BD40F2B065C2F200052C1D05F1200394
:100D900001212246FFF7D0FC05F12800016820461A
:100DA000BDE8B040084700BF40F2B065C2F20005A0
:100DB00005F1300405F14C0301212246FFF7BCFC8C
:100DC00005F1540001682046BDE8B0400847000026
:100DD00070470000B0B5044690F8200001281DD1EE
:100DE000022084F820002068016821F001010160E0
:100DF00000F064FB054600BF20684068C00713D0C0
:100E000000F05CFB401B0B28F6D3606A40F4003016
:100E10006062052084F820000120B0BD606A40F4C3
:100E2000002060620120B0BD00206062B0BD000003
:100E300070470000704700007047000070470000D6
:100E400070470000704700007047000070B5866D65
:100E5000044600F033FB94F83510022928D10546EA
:100E60002068216C026822F016020260426922F0BA
:100E70008002426109B9A16C19B1016821F0080131
:100E80000160016821F00101016000BF2068006875
:100E9000C00715D000F012FB401B0628F6D3202017
:100EA0006065032084F83500002184F8341070BD9B
:100EB000802060650120002184F8341070BD00BFDF
:100EC000E06D3F2101FA00F0B060012084F83500A8
:100ED0000020002184F8341070BD000090F8351017
:100EE000022909D1052180F835100068016821F038
:100EF0000101016000207047802141650120704799
:100F0000F0B581B00021009140F22401C2F200014D
:100F10000B68D0E9166148F2B51537680822C1F6AA
:100F20004E358A403A42A3FB05350CD003681C6855
:100F3000640708D51C6824F004041C60B260426D8C
:100F400042F00102426501228A403A4208D0036819
:100F50005B691B0604D5B260426D42F00202426535
:100F600004228A403A4208D003681B689B0704D5D4
:100F7000B260426D42F00402426510228A403A4259
:100F800019D001680B681B0715D5B2600B680A6899
:100F90005B0309D4D20509D40A6822F008020A606A
:100FA000016C29B907E000BF110341D4016C11B1F4
:100FB000044688472046C26D202101FA02F33B42D5
:100FC00043D001680F68FF063FD5B36090F83570D5
:100FD0000B68052F1CD123F016030B604B6923F01F
:100FE00080034B61036C0BB9836C1BB10B6823F05E
:100FF00008030B603F219140B160012180F835105A
:10100000016D0022002980F8342054D158E000BF3F
:101010000A685B0310D4D20512D40A6822F01002C9
:101020000A60012180F83510002180F8341007E0B3
:10103000816C0029BCD1BEE7110301D4416C00E0F2
:10104000C16B11B1044688472046416DC1B3416D63
:10105000C9072ED0052180F835100168AA0A0B684F
:1010600023F001030B60009B0133934200931AD8D5
:101070000B68DB0717D0009B01339342009312D813
:101080000B68DB070FD0009B0133934200930AD813
:101090000B68DB0707D0009B01339342009302D813
:1010A0000B68DB07DFD1012180F83510002180F8C3
:1010B0003410C16C21B101B0BDE8F040084700BF59
:1010C00001B0F0BD2DE9F041044600F0F7F9ECB1B4
:1010D0000546022084F835000020216884F8340099
:1010E000086820F00100086021680868C00711D076
:1010F00000F0E4F9401B0528F6D90325202303203E
:10110000636584F83550BDE8F08100BF0120BDE87B
:10111000F08100BF086848F23F02CFF21002D4E924
:10112000013500EA020C04F10C0898E8C10143EA19
:101130000C032B431843D4E9072E304338431043A4
:10114000626A40EA0E00042A40EA08031CD1206BC0
:10115000D4E90A2E40EA0E00184308604869BEF13F
:10116000000F20F0030040EA020040F0040C11D010
:10117000B8F5005F36D0B8F1000F45D1022A46D04D
:10118000012A3BD032B942E00B60486920F00700E9
:1011900040EA020C01F0F8004AF6AB221038CAF619
:1011A000AA22A0FB02231A0948F65C33C1F814C036
:1011B000C0F600039A5C40F2FF335F284FF03F0017
:1011C00021EA030100FA02F088BF0431C4E91612D3
:1011D0008860002301250020636584F83550BDE850
:1011E000F08100BF032AD5D8012540230120DFE884
:1011F00002F0030E030500BF82E700BFAEF1C0702E
:10120000B0FA80F0400904E0032A04D3C2D1CEF33F
:1012100000600028BED0012540230120636584F8CA
:101220003550BDE8F081000090F834C0BCF1010FEA
:1012300004BF0220704770B54FF0010C80F834C035
:10124000D0F858E090F835C0BCF1010F38D14FF01C
:10125000020C80F835C04FF0000CC0F854C0D0F834
:1012600000C08468056CC06DDCF80060402C26F47A
:101270008026CCF80060CCF804300B4604BF13463F
:101280000A463F2101FA00F0CCF80830CCF80C20D7
:10129000CEF80800DCF8000040F01600CCF80000A2
:1012A0002DB1DCF8000040F00800CCF80000DCF8BC
:1012B000000040F00100CCF80000002070BD00BF2D
:1012C000002180F83410022070BD0000B0B5044643
:1012D00000F0F4F8054640F20000C2F20000007889
:1012E000611C18BF044400BF00F0E8F8401BA04296
:1012F000FAD3B0BD7047000043F61441C4F20101B7
:101300000A68024214BF08607047FFF7F3BF00008D
:101310002DE9F04F83B000F1200200F13E4741F685
:101320000045009207F1FF77C4F2020508224FEA58
:10133000B726A84208BF072200254FF000084FF04B
:101340000009072E38BF4FEAB72201920AE000BF1A
:1013500009F1010908F10208B9F1100F05F10405BE
:1013600000F0A2800F68012202FA09FE17EA0E0AB5
:10137000EED0D1F804C003220CF003077E1E02FA5F
:1013800008F4012E6FEA040B12D88468CE6804EAD0
:101390000B0406FA08F634438460446824EA0E0617
:1013A000CCF3001404FA09F42643466004E000BFBD
:1013B000032F01D103271EE0C6688C6806EA0B06DE
:1013C00004FA08F42643022FC66014D16FF003021A
:1013D000009E02EA590756F807C005F01C040F22C8
:1013E0000B69A2402CEA0202A3401A43F251D1F841
:1013F00004C00CF00307026807FA08F302EA0B02C4
:101400001A431CF4403F0260A2D0002243F644037A
:101410000292C4F202031A6843F6004442F4804286
:101420001A601A68C4F2010402F480420292029A1D
:1014300029F003024FF6084C2244CFF6FF7C52F805
:101440000C3005F00C070F26BE40B343019E06FA90
:1014500007F73B4342F80C30A2684B6842EA0A07A0
:1014600043F60C4CDE0258BF22EA0A07A760C4F21A
:10147000010CDCF800209E0242EA0A0758BF22EA6B
:101480000A07CCF8007062689E0342EA0A0758BF58
:1014900022EA0A0767602268DB0342EA0A0758BFAC
:1014A00022EA0A07276053E703B0BDE8F08F000087
:1014B000002A08BF090481617047000042F6D46029
:1014C000C2F2000000687047002804BF0120704786
:1014D000F0B581B0044690F83D0028B9002084F8AA
:1014E0003C00204600F0A2F8242084F83D0020684B
:1014F000016821F001010160016841F400410160CF
:10150000016821F40041016001F0B8FA636848F213
:10151000A16CC0F2010C40F60011C0F23D01634520
:101520003CBF48F28041C0F21E01884202D2012035
:1015300001B0F0BD4DF68361C4F21B31A0FB011276
:101540002168970CD1F804E04FF496762EF03F0511
:1015500045EA92454D60774348F638160D6AC0F269
:101560004106A7FB067625F03F07634538BF960C7A
:10157000721C3A430A62CA6948F2A0664CF6FF77C9
:10158000C0F20106B34222EA07020BD801385B0021
:10159000B0FBF3F001306FF31F30042898BF042034
:1015A0001BE000BFA768013857B119277B43B0FB88
:1015B000F3F001306FF31F3070B100F5804007E0A9
:1015C00003EB4303B0FBF3F001306FF31F3018B1AE
:1015D00000F5004001E000BF01201043C861086829
:1015E000D4E9072320F0C00010431843086088683E
:1015F00048F2FF3204F10C0790438CCF184310439C
:10160000A6698860C86820F0FF0038433043C8608E
:10161000086840F00100086000202021206484F860
:101620003D10206384F83E0001B0F0BD2DE9F04F7D
:1016300087B0044645F600470068C4F2000700265C
:10164000B8420696CDE904660396029602D007B02A
:10165000BDE8F08F43F630050196C4F20205286814
:101660000DF1080940F00400286028684FF0010BD4
:1016700000F0040001900198019628684FF00308DB
:1016800040F00100286028684FF0040A00F00100D3
:10169000019001984FF4007002901220039007F51A
:1016A000D6304946CDF810B0CDF81480CDF818A04A
:1016B000FFF72EFE4FF4807002901220CDE9030B4D
:1016C000CDF8148046F2400807F5D2304946C4F2FE
:1016D0000208CDF818A0FFF71BFE019628694FF00D
:1016E000C06740F400002861286942F2044500F414
:1016F000000001900198C2F200054FF4806928466D
:10170000C5E90087C5E90266C5E90496C5E906662C
:10171000C5E90866FFF7D6FC002818BFFEF72CFFC6
:10172000A563AC6342F2644508F13000C2F20005E3
:101730004021C5E9000705F10800002280E8060203
:101740002846C5E90522C5E907226A62FFF7BAFC07
:10175000002818BFFEF710FF6563AC6307B0BDE853
:10176000F08F000040F2000042F6D461C2F20000A7
:10177000C2F2000100780A68104408607047000057
:1017800080B543F60040C4F20200016841F40071E4
:101790000160016841F480610160016841F4807179
:1017A0000160032000F086F80F2000F005F800F03B
:1017B00027F8002080BD000070B540F20006C2F29C
:1017C000000640F224013278C2F200014FF47A732D
:1017D0000968B3FBF2F20446B1FBF2F1084601F0EE
:1017E0007DFC0F2C4FF0010508D838B94FF0FF30C1
:1017F00021460022002500F031F87460284670BDB3
:1018000082B0002043F640010190C4F202014A6810
:1018100042F480424A604A6802F480420192019A8E
:101820000090086840F080500860086800F0805020
:101830000090009802B07047002848BF704700F041
:101840001F01012202FA01F11C2202EAD0004EF22D
:101850000012CEF2000281507047000010B54EF623
:101860000C5CCEF2000CDCF80030C3F3022E8EF0DC
:101870000704042C28BF0424BEF103034FF0FF3EED
:101880000EFA04F438BF0023A14399400EFA03F383
:101890009A43114300F00F0200F160430901043A3A
:1018A00003F564436244002848BF02F10C03197039
:1018B00010BD00004EF60C51CEF200010A684FF642
:1018C000FF031A4060F30A2242F0806040F0FD708E
:1018D000086070477047000002680020516270473E
:1018E0002DE9F041D0F80080D8F8243091B1D8F833
:1018F0002870B1F1010C03EB17414FD05FFA8CF760
:1019000008F58273042F0CF0030E0BD2002700247D
:101910002BE000BF43EA02410020C8F82810BDE8D0
:10192000F08100BF0CF0FC0508F1F406002400BFB4
:1019300056F8107F44F0020001EB174144F0010714
:10194000FFB253F82770C0B253F8200001EB1741E3
:1019500001EB104044F00301C9B253F821100434E4
:10196000E7B2AF4200EB1141E2D1BEF1000F15D05A
:1019700053F82700BEF1010F01EB10410ED0601C9F
:10198000C0B253F82000BEF1020F01EB104105D0A8
:10199000A01CC0B253F8200001EB104141EA024004
:1019A00008EB8C01C1F804010020BDE8F0810000C3
:1019B000D0F8E00404F07ABB01EBC102D0F8E034C7
:1019C00000EB8200026A184604F0DCBA01EBC102A7
:1019D000D0F8E03400EB8200D0F86022184604F022
:1019E0002DBB0000D0F8E00404F062BB10B501F09C
:1019F0000F0E0A464FFA81FC0EEBCE0100EB81037D
:101A000003F51571BCF1000F48BF03F1140190F804
:101A10009434D209012B4A7081F800E004BF0220FF
:101A200010BD0268012380F894340446104605F086
:101A300019F9002084F8940410BD0000037901F026
:101A40000F029A4284BF0120704710B502EBC20317
:101A500000EB83034FFA81FC8E4603F51571BCF150
:101A6000000F48BF03F114014FEADE134B7090F8EA
:101A700094344FF0000C012B81F802C00A7004BFAF
:101A8000022010BD0268012380F8943404461046F9
:101A900005F0DCFB002084F8940410BD01F00F0178
:101AA00001EBC10100EB8100D0F868027047000033
:101AB00010B54FFA81FE01F00F0CBEF1000F6FF36D
:101AC000DF220CEBCC010DD400EB810E00240EF5CF
:101AD00015718EF855428EF854C2CEF85C228EF8FD
:101AE000583209E000EB810101F814CF01244C7059
:101AF0008A600B71A1F81AC0022B04BF00224A7140
:101B000090F89424012A04BF022010BD026801232A
:101B100080F894340446104604F048FF002084F80E
:101B2000940410BD10B501F00F0E0EEBCE0100EBCA
:101B300081044FF0000CC4F868C284F855C290F8D4
:101B400006C004F51571C4F86022C4F86432BCF113
:101B5000010F84F854E208BFCA610068624605F0CC
:101B6000BFFB002010BD0000B0B5027901F00F04EA
:101B700094424FF001022CD801EBC10300EB830328
:101B80004FFA81FC03F5157304EBC405C90900EB9A
:101B90008505BCF1000F48BF05F11403597090F89A
:101BA00094149A7001291C7004BF0220B0BD016812
:101BB000054680F894240846194605F071FB2CB9B7
:101BC0002868A97905F29C4205F012FB002285F8ED
:101BD00094241046B0BD000001F00F0C0CEBCC01BA
:101BE00000EB810101F814CF4FF0000C0B618379F9
:101BF000C1F814C04FF0010CCA60012B81F801C07C
:101C000008BFCA6180B500681A4605F069FB00206C
:101C100080BD00002DE9F04F87B005688246284658
:101C200005F07AFD10B107B0BDE8F08FDAF80000DA
:101C300005F0A0FD0028F6D0D5F80808C0F30D2166
:101C4000DAF80000CAF8D41405F094FD0146DAF879
:101C50000000890703D5416901F00201416105F5E2
:101C60000061049105F086FD0146DAF80000C9061E
:101C7000059535D5816921F0100181612C6A04F048
:101C80000F0000EBC0000AEB8001C4F343400628BC
:101C900001F5157512D002281BD147F6F07014EA31
:101CA000000616D0E96834090598224605F066FD5D
:101CB000E86800EB1610E86008E000BF05980AF23B
:101CC0009C41082205F05AFDC4F30A1468692044B7
:101CD0006861DAF80000816941F010018161059DB9
:101CE00005F048FD000340F1F180DAF8000005F04E
:101CF0001FFD002800F0EA8006460AF29C404FF4DF
:101D0000306800244FF0000B069019E005EB080046
:101D100002218160B80642BF05EB080020218160E6
:101D2000B80442BF05EB08004FF4005181600BF18D
:101D3000010B760808F1200804F1240400F0C680A5
:101D4000F007F4D0DAF800005FFA8BF9494605F0A5
:101D500009FD0746C00760D005EB0800012181603E
:101D6000DAF8000008EB0001036C8A689AF8065064
:101D7000012D25D1150733D4950600F19F8043F23C
:101D80000B05C4F65475AB42059D02D312F4004214
:101D900030D10AEB0402D2F8743209696FF3DF41E3
:101DA000A3EB0101C2F868129CBBD2F86432002B8D
:101DB00000F08A80D2F860020844C2F8600228E08D
:101DC00043F20B05C4F65475FF35AB4218D1059D9F
:101DD00010040FD4900644BF2020886019E000BF93
:101DE00043F20B00C4F65470059D834215D312F4E0
:101DF000004012D04FF40040886038070FD43DE017
:101E0000059D34B9DAF8641219B90021069A05F073
:101E1000EFF950464946FFF7D9FD38072ED505EBB7
:101E2000080008218160DAF8000043F20B02056C1B
:101E300040448168C4F6547295420BD311F40041BA
:101E400008D04FF400418160504600F01DFD059D13
:101E50000AE000BF504600F017FD43F20B00C4F645
:101E600054708542059D09D39AF80600012805D1D2
:101E7000DAF80000069A012105F0BAF9F80642BF27
:101E800005EB080010218160B8077FF543AF686952
:101E9000000604D50499486840F4806048600AEB65
:101EA000040090F8571201297FF430AF002180F828
:101EB00057125046494600F035FB27E7202088603E
:101EC000059D3807ABD4D9E701219FE7DAF8000078
:101ED000CDF818A005F04EFC400340F1D3800698E1
:101EE000006805F01DFC002800F0CC80064606982E
:101EF00005F5106900F1140100F29C4000270391E0
:101F00000190CDF8089004E0760807F1010700F091
:101F1000B980F007F8D006985FFA87FA0068514652
:101F200005F00EFC0446C00726D0049A07F00F0007
:101F3000516B012303FA00F021EA0000506309EB22
:101F40004710836006988079012811D1039907EB27
:101F5000C70001EB8000D0E902121144C1603FB913
:101F6000006928B90698019A0068012105F040F936
:101F700006985146FFF720FD200742BF09EB4710A6
:101F800008218160E00642BF09EB47101021816003
:101F9000600642BF09EB471040218160A00716D5BB
:101FA0002846394605F04AFB039907EBC70001EBC9
:101FB000800010F8031F012905D100210170069847
:101FC000514600F0ABFA09EB471002218160200670
:101FD0009AD5039907EBC70001EB8008D8E90420E4
:101FE000824291D30699D8F808300C68111A9942A8
:101FF00038BF0B4604EB4711D1F818C903F1030EA3
:102000001FFA8CF3B3EB9E0F2DD301F5106900BFBF
:10201000D8F81020824224D9101A069AD8E902B1C1
:102020009579584538BF83461FFA8BF320465246B0
:102030000095059D05F04AFED8F80C00D8F814105C
:102040005844C8F80C0001EB0B00C8F81400D9F88C
:1020500018100BF1030289B2B1EB920FD8D2D8F865
:102060001020DDF8089082423FF64EAF07F00F00D7
:10207000D4F83418012202FA00F021EA0000C4F872
:10208000340841E7DDF81890D9F8000005F072FB3C
:10209000002821D4D9F8000005F06CFB00053AD4E3
:1020A000D9F8000005F066FBC00445D504994868DE
:1020B00020F001004860D9F80000102105F0BEFAB8
:1020C00099F80400010600F0EC80C1B2042900F088
:1020D000030035D200219AE00499486820F00100FD
:1020E000486099F8CC04012808D1002089F8CC0474
:1020F00048460021FFF7EEFB03E000BF484600F032
:10210000A7FBD9F80000416901F00041416105F0E9
:1021100031FB0005C4D504988068C00702D048464A
:1021200000F0DAFBD9F80000416901F40061416177
:1021300005F020FBC004B9D4D9F80000DDE000BFF1
:102140006FF0600202EA411200234FF67F37002150
:10215000EE18C6F80879D6F80059803325F4001532
:10216000C6F80059C6F8087BD6F8005B9A4225F4F9
:102170000015C6F8005BD6F8005B01F1040145F0DC
:102180000065C6F8005BC6F82879D6F8205925F412
:102190000015C6F82059C6F8287BD6F8205B25F430
:1021A0000015C6F8205BD6F8205B45F00065C6F840
:1021B000205BC6F84879D6F8405925F40015C6F8D2
:1021C0004059C6F8487BD6F8405B25F40015C6F8A0
:1021D000405BD6F8405B45F00065C6F8405BC6F84A
:1021E0006879D6F8605925F40015C6F86059C6F824
:1021F000687BD6F8605B25F40015C6F8605BD6F8FE
:10220000605B45F00065C6F8605B059DA0D10028C5
:1022100047D005F5106202EB41134FF67F374E01B0
:102220009F609559059B25F4001503F53063955182
:1022300003EB4115AF609D59012825F400159D5110
:102240009D5945F000659D512BD04E1C02EB461464
:102250007501A760545903EB461624F40014545139
:10226000B7605F59022827F400175F515F5947F0A4
:1022700000675F5115D0881C02EB40174FF67F3680
:102280004101BE60575803EB401027F40017575028
:102290008660585820F400105850585840F000609C
:1022A0005850049F8421F869442240F00110F861DD
:1022B00099F80F0000284FF00B0008BF142108BF49
:1022C00042F22B007B5808BF102218437850B858B0
:1022D00040F00B00B850386809F29C4220F4FE60D0
:1022E0003860D9F8000099F8061004F081FFD9F899
:1022F0000000416901F48051416105F03BFA01465B
:10230000D9F8000089041AD504F092FBD9F800002E
:1023100005F0F4F9D9F8004089F8070000F0A8FBAF
:1023200099F807200146204605F044FC484600F095
:1023300079FAD9F80000416901F40051416105F0D2
:1023400019FA000706D4D9F8000005F013FA0006C0
:102350000DD437E0484600F07FFAD9F80000416913
:1023600001F00801416105F005FA00062AD505993A
:10237000886920F08000886199F80400022821D340
:1023800009F5157409F11405012640F27B2704E0D4
:102390000136864207F1240714D219F807100129E3
:1023A000F6D106F00F0000EBC0023006D9F80000AD
:1023B00005EB820158BF04EB820105F0AFF899F8F4
:1023C0000400E5E7D9F8000005F0D4F9C0024FD4C5
:1023D000D9F8000005F0CEF9059D800240F180801B
:1023E00099F80410022929D305F53260013909F55D
:1023F0001F72012305E000BF2030013902F12402E1
:102400001CD007681678012EF6D1B7F1FF3FF3DC38
:10241000D9F8D46407F4803706F00106B742EBD14F
:1024200002F8013CAF6947F08007AF616F693F0672
:10243000E2D40499486840F400704860D9F800007C
:10244000416901F40011416105F094F940004DD556
:102450004846FFF7ADFAD9F80000416901F0804124
:10246000416105F087F940077FF5DDAB45E000BF2E
:1024700099F80400022827D3059909F1140401F5FD
:10248000126509F13B064FF00108012706E000BF85
:1024900001372035874206F1240615D22968727863
:1024A000012AF5D1B1F1FF3FF2DC07F00F0000EB9C
:1024B000C001D9F8000004EB810186F8008005F026
:1024C0002DF899F80400E3E7D9F80000416901F418
:1024D0008011416105F04EF9059D80023FF580AF06
:1024E000D9F8000005F046F94000B1D4D9F8000051
:1024F00005F040F940077FF596ABD9F80000446835
:10250000610704D54846FFF76DFAD9F80000416825
:102510002143416007B0BDE8F08F0000D0F8E0042F
:1025200003F02ABED0F8E00403F03CBE002804BF4C
:1025300001207047F0B581B00446056890F8950415
:1025400028B9002084F89404204600F027F90320DD
:10255000B5F1A04F84F8950404BF0020A071206855
:1025600004F03EFE94E80F00267C009604F070FA1A
:10257000002840F000812068002105F055F900286E
:1025800040F0F98094F804E0BEF1000F00F0EC8018
:102590000EF0030CBEF1040F4FF0000240D30EF01A
:1025A000FC03A4F190000321012500BFCE1E80F89A
:1025B000A460A0F8BE608E1E80F8C860A0F8E2603B
:1025C0004E1E80F8EC60A0F8066180F81011A0F8AB
:1025D0002A110E1D013180F8A55080F8A820C0E90D
:1025E0002B22C0F8B42080F8C95080F8CC20C0E974
:1025F0003422C0F8D82080F8ED5080F8F020C0E9EF
:102600003D22C0F8FC2080F8115180F81421C0E967
:102610004622C0F82021903099423146C6D1F21EA0
:10262000BCF1000F31D004F1140002EBC20100EB49
:102630008105012300F821200021BCF1010F6B70FE
:102640006A832971C5E9021129611ED0551C05EB69
:10265000C50600EB8607BCF1020F7B7000F8265020
:102660007D833971C7E9021139610ED0911C01EBEC
:10267000C10200EB8203012500F8221000205D70EA
:1026800059831871C3E902001861BEF1000F6BD0C5
:10269000BEF1040F4FF0000236D30EF0FC00032110
:1026A000234600BFCF1E83F854728F1E83F87872C2
:1026B0004F1E83F8C0120D1D013183F8552283F897
:1026C0005822C3E99722C3F8642283F8792283F859
:1026D0007C22C3E9A022C3F8882283F89D2283F8D4
:1026E0009C7283F8A022C3E9A922C3F8AC2283F824
:1026F000C12283F8C422C3E9B222C3F8D0229033A6
:1027000081422946CED1EA1EBCF1000F2CD004F53F
:10271000157002EBC20300EB83070021BCF1010F2F
:10272000797000F823203971C7E9021139611BD093
:10273000531C03EBC30700EB8706BCF1020F71705B
:1027400000F827303171C6E9021131610CD0911CBB
:1027500001EBC10200EB820300275F7000F822103A
:102760001F71C3E902771F6194E80F00277C00976F
:1027700004F0DAFA30B1022084F89504012001B0A7
:10278000F0BD00BF00206074012084F8950420682B
:1027900004F0BAFA002001B0F0BD0000B0B586B078
:1027A00000680024B0F1A04F0594CDE903440294E1
:1027B000019401D006B0B0BD43F630050094C4F2D8
:1027C0000205286801A940F001002860286800F08F
:1027D0000100009000984FF4C05001900220CDE914
:1027E0000204032004900A2005900020C4F2020095
:1027F000FEF78EFD6868002140F08000686000945C
:102800006869002240F480406861686900F4804093
:10281000009000984320FFF721F84320FFF70CF8C1
:1028200006B0B0BD10B50446C07928B1022801D069
:10283000FDF7A2FE012100E00021D4F8E00403F03E
:1028400037FDD4F8E004BDE8104003F0E7BC000019
:10285000D0F8E00403F012BDD0F8E00403F018BD96
:1028600090F89424012A04BF0220704710B5012279
:1028700080F89424417402680446104605F088F9F3
:10288000002084F8940410BDD0F8E02400F29C41AC
:10289000104603F023BD000010B5044690F89404E0
:1028A000012804BF022010BD2068012184F894147F
:1028B000C168490606D5617B012903D1816B41F4CA
:1028C0008031816304F0B2FE206804F00DFA00202C
:1028D00084F8940410BD000010B50446D0F8E0045C
:1028E00003F052FD2068D0F8001E41F00101C0F84D
:1028F000001EE07A002808BF10BD4EF61050CEF240
:102900000000016841F00601016010BD002804BF0D
:10291000012070472DE9F04143F60808C4F202088F
:102920000446D8F8F8030D4600F00700884207D2A5
:1029300088F8F853D8F8F80300F00700A84277D1D8
:102940002068810717D5410705D5D8F8001041F454
:10295000E051C8F80010010705D5D8F8001041F47F
:102960006041C8F80010D8F80010A26821F0F0010A
:102970001143C8F80010C00740D1D8F8F80300F0A0
:102980000700A84207D988F8F853D8F8F80300F0F0
:102990000700A8424CD12068410707D5D8F800109D
:1029A000E26821F4E0511143C8F80010000708D58F
:1029B000D8F80000216920F4604040EAC100C8F85E
:1029C000000000F083F8D8F8001048F64432C1F354
:1029D0000311C0F60002515C40F2240220FA01F11A
:1029E00040F20400C2F200000068C2F2000211606E
:1029F000FEF7E2FE0020BDE8F08100BF6068811EA6
:102A0000022907D258F8081C89015CBF0120BDE8E3
:102A1000F08111E0012807D158F8081C89035CBF38
:102A20000120BDE8F08107E058F8081C890703D4AD
:102A30000120BDE8F08100BFD8F8001021F00301AB
:102A40000843C8F80000FEF739FD064641F2883712
:102A5000D8F80000616800F00C00B0EB810F8CD05A
:102A6000FEF72CFD801BB842F2D90320BDE8F081AF
:102A700040F22400C2F200000068704740F22400D7
:102A800043F60801C2F20000C4F2020100680968BE
:102A900048F65432C1F38221C0F60002515CC840AE
:102AA0007047000040F2240043F60801C2F2000023
:102AB000C4F202010068096848F65432C1F3423199
:102AC000C0F60002515CC8407047000010B543F6E4
:102AD0000404C4F20204606800F00C0008280BD063
:102AE000042819BF42F20040C0F2F40041F6003061
:102AF000C0F2B70010BD00BF2068216823684902FA
:102B000041F60031C0F2B70100F03F02C3F3881074
:102B10005CBF42F20041C0F2F401A1FB00010023BE
:102B2000FDF7C8FB21680222C1F3014102EB41011C
:102B3000B0FBF1F010BD0000002804BF0120704779
:102B40002DE9F04182B00446007843F60006C00744
:102B5000C4F202060CD0B06800F00C00042840F06B
:102B600081803068800303D56068002800F06881A8
:102B7000207880071BD5B06810F00C0F09D0B06822
:102B800000F00C00082840F087807068400200F1D7
:102B900083803068800703D5E068012840F05081C9
:102BA0003068216920F0F80040EAC10030602078E8
:102BB000000713D4207840072AD4A569002D00F01F
:102BC0003A81B06800F00C00082840F0A580012D83
:102BD00040F00E81012002B0BDE8F081606900285C
:102BE00000F082800020C4F247200121C0F8801E3E
:102BF000FEF764FC054600BF706F8007DAD4FEF76D
:102C00005DFC401B0228F7D9032002B0BDE8F0812B
:102C1000306C5FEAC0080AD400200190306C40F0AC
:102C200080503064306C00F080500190019847F281
:102C30000007C4F200073868C00547D4386840F47C
:102C400080703860FEF73AFC054600BF3868C00562
:102C50003CD4FEF733FC401B0228F7D9032002B016
:102C6000BDE8F081B06800F00C00082803D170685E
:102C700040023FF576AF61683068B1F5803F07D01C
:102C8000B1F5A02F40F09A8040F480203060306889
:102C900040F4803030609AE0E068002840F20000A4
:102CA000C4F247205CD001210160FEF707FC054615
:102CB000306880073FF574AFFEF700FC401B022828
:102CC000F6D9032002B0BDE8F08100BFA168306FE3
:102CD000012905D0052955D140F004003067306F37
:102CE00040F00100306756E00020C4F24720002188
:102CF000C0F8801EFEF7E2FB054600BF706F80073C
:102D00007FF558AFFEF7DAFB401B0228F6D9032007
:102D100002B0BDE8F08100BF0027C4F247270020C1
:102D20003866FEF7CBFB022D05460DD130688001D9
:102D300040F18A80FEF7C2FB401B02284FF00300DF
:102D4000F4D902B0BDE8F0813068800173D5FEF798
:102D5000B5FB401B02284FF00300F5D9F1E700BF97
:102D600000210160FEF7AAFB054600BF306880071E
:102D70007FF51DAFFEF7A2FB401B02284FF00300BA
:102D8000F4D9DEE720F001003067306F002920F031
:102D9000040030677AD0FEF791FB054641F2883790
:102DA000306F800700F18480FEF788FB401BB8423B
:102DB000F6D9032002B0BDE8F08100BF20F48030D6
:102DC00030603068002920F4802030607AD0FEF72F
:102DD00075FB0546306880033FF5CAAEFEF76EFB13
:102DE000401B6428F6D9032002B0BDE8F08100BF83
:102DF0007068E16900F480028A4221D1216A00F002
:102E00003F028A421CD147F6C071626A0140B1EBB1
:102E1000821F15D1A16A4FF6FF73C903994300F4CD
:102E20004032A1F580318A420AD1E16A00F0706037
:102E3000B0EB016F04D1002002B0BDE8F08100BF0B
:102E4000012002B0BDE8F08104F11C052FCD08433C
:102E500040EA8210D9034FF6FF729143A1F5803109
:102E600040EA05600843706001203866FEF726FBE3
:102E7000044600BF30688001DDD4FEF71FFB001B55
:102E800002284FF00300F5D95BE700BFFEF716FB01
:102E9000054641F2883700BF306F800708D5FEF73E
:102EA0000DFB401BB8424FF00300F5D949E700BFC6
:102EB000B8F1000F3FF581AE306C20F080503064E7
:102EC0007BE600BFFEF7FAFA054600BF30688003D4
:102ED0007FF54EAEFEF7F2FA401B64284FF0030078
:102EE000F4D92EE770B528B1416A29B100210161FA
:102EF000142106E0012070BD4168B1F5827F02D047
:102F00001C21002242500026866290F8511029B9F7
:102F100080F85060054600F03DF82846022180F810
:102F2000511090E82E0002F482720C6803F40443FE
:102F300024F040040C601A4405F4006305691A4447
:102F400005F0020345691A4405F001038569C46967
:102F50001A4405F400731A4404F03803046A1A444E
:102F600004F08003846A1A4304F400531A430A608D
:102F7000436A042202EA154203F010031A444A602D
:102F8000CA6922F40062CA610121466580F85110C5
:102F9000304670BD2DE9F04F87B0044643F200077C
:102FA0000068C4F201070026B8420696CDE904661F
:102FB0000396029602D007B0BDE8F08F43F63000CA
:102FC0000196C4F20200416902AD41F480514161B1
:102FD00041694FF0020A01F4805101910199019673
:102FE00001684FF0010B41F00201016001684FF0F0
:102FF000030901F0020101910199019601684FF066
:10300000050841F0010101600068294600F0010057
:10301000019001981820029007F55440CDF80CA0BB
:10302000CDF810B0CDF81490CDF81880FEF770F9F7
:10303000802002A981E8010CCDE9059846F24048BC
:1030400007F550402946C4F20208FEF761F942F242
:10305000C445C2F200054FF4403005F120014FF0A5
:10306000C06B4FF4806A042781E881022846C5E9D5
:10307000008BC5E90266C5E904A6C5E90666C5E98F
:103080000B66FEF71FF8002818BFFDF775FAE56418
:10309000AC6342F2245508F11800C2F20005402149
:1030A000C5E9000B05F10800002280E806044FF492
:1030B000003005F1200181E881022846C5E905229A
:1030C000EA61C5E90B22FDF7FDFF002818BFFDF7F7
:1030D00053FAA564AC6307B0BDE8F08F411E002031
:1030E000B0EB116F1CBF012070474EF21002CEF200
:1030F000000251604EF62351CEF20001F0230B7016
:103100000721906011607047704700007047000011
:1031100090F83C20012A04BF02207047B0B501F1AD
:1031200008053CCDD1E900CE23F47C5322F4705243
:103130001A432EF4F0431A432CF4E0431A4324F4C8
:10314000C0431A432A43C96922F4804203681143E9
:103150005964002180F83C100020B0BD90F83C205C
:10316000012A4FF0020254D010B580F83D200268C9
:10317000D2F804E0D2F808C00C682EF070032343A4
:1031800041F2FF74C4F20004A24253600EDC40F22C
:10319000FF73C4F200039A4216DCB2F1804F2BD0C9
:1031A00040F20043C4F2000324E000BF40F2FF33CA
:1031B000C4F201039A4213DC41F60003C4F2000397
:1031C0009A4219D0002313E040F60003C4F2000332
:1031D0009A4211D040F60043C4F200030AE000BF57
:1031E00044F20003C4F201039A4205D040F20043C6
:1031F000C4F201039A4204D149682CF080031943B8
:1032000091600121002280F83D1080F83C20BDE84B
:103210001040104670470000002804BF012070478E
:1032200010B5044690F83D0028B9002084F83C0011
:10323000204600F01FF8022084F83D002068211D80
:1032400001F04CFE012084F8460084F83E0084F82A
:103250003F0084F8400084F8410084F8420084F87C
:10326000430084F8440084F8450084F83D000020C1
:1032700010BD000080B582B0006840F6FF31C4F296
:10328000000188421EDD40F60041C4F20001884280
:103290003ED044F20041C4F20101884252D00021E4
:1032A000C4F2010188426AD10020019043F6400037
:1032B000C4F20200416841F001014160406800F041
:1032C00001005AE040F20041C4F20001884247D0B8
:1032D00040F60001C4F20001884250D10020019064
:1032E00043F64000C4F202000168002241F00401EC
:1032F00001600068012100F00400019001981E2087
:10330000FEF7ACFA1E2002B0BDE88040FEF794BA8A
:103310000020019043F64000C4F202000168002240
:1033200041F0080101600068012100F008000190EF
:1033300001983220FEF792FA322002B0BDE88040B8
:10334000FEF77ABA0020019043F64000C4F2020072
:10335000416841F400314160406800F400300CE005
:103360000020019043F64000C4F20200016841F0E1
:1033700002010160006800F002000190019802B0B3
:1033800080BD000090F83D1001291CBF012070474E
:10339000022180F83D10006841F2FF72C168C4F25A
:1033A0000002904241F00101C1600DDC40F2FF716A
:1033B000C4F20001884215DCB0F1804F2AD040F2FF
:1033C0000041C4F2000123E040F2FF31C4F20101E8
:1033D000884213DC41F60001C4F20001884219D092
:1033E000002113E040F60001C4F20001884211D030
:1033F00040F60041C4F200010AE000BF44F20001BF
:10340000C4F20101884205D040F20041C4F201013A
:10341000884206D1816801F00701062904BF002017
:103420007047016841F00101016000207047000011
:1034300090F83C20012A4FF002026CD080B580F851
:103440003D20D0F800C04FF67772DCF8083023EA50
:103450000202CCF808200B684F2B29DC1F2B45DD1E
:10346000202B46D0302B44D0402B40F0AF80D1F8F9
:1034700004E0C968DCF82030DCF8202022F00102EA
:10348000CCF82020DCF8182022F0F00242EA0111EA
:1034900023F00A0242EA0E02CCF81810CCF82020E1
:1034A000DCF8081041F0470121F0300128E000BFAE
:1034B0006F2B33DDB3F5005F74D0B3F5805F21D09F
:1034C000702B40F08380D1E901E3C968DCF8082063
:1034D00043EA0E0322F47F4243EA01211143CCF870
:1034E0000810DCF8081041F0770109E00BB1102B4F
:1034F0006CD1DCF8081021F07001194341F007018C
:10350000CCF808100022012180F83D10002180F83D
:103510003C10BDE880401046704700BF502B21D0C2
:10352000602B53D1D1F804E0C968DCF82030DCF816
:10353000202022F01002CCF82020DCF8182022F401
:10354000704242EA013123F0A00242EA0E12CCF8A6
:103550001810CCF82020DCF8081041F0670121F0A9
:103560001001CDE7D1F804E0C968DCF82030DCF8C0
:10357000202022F00102CCF82020DCF8182022F0D4
:10358000F00242EA011123F00A0242EA0E02CCF8EC
:103590001810CCF82020DCF8081041F0570121F079
:1035A0002001ADE7D1E901E3C968DCF8082043EA6E
:1035B0000E0322F47F4243EA01211143CCF80810A4
:1035C000DCF8081041F480419AE700BF01229AE735
:1035D0007047000070B504460068C5680669B10709
:1035E00016D515F0020113D06FF00201016101211F
:1035F00021778069800703D02046FFF7E9FF05E0C7
:10360000204600F08FF8204600F0CEF90020207709
:10361000700719D515F0040016D020686FF004016A
:10362000016102212177806910F4407F04D0204697
:10363000FFF7CEFF06E000BF204600F073F82046FB
:1036400000F0B2F900202077300717D515F00800F8
:1036500014D020686FF00801016104212177C0694E
:10366000800703D02046FFF7B3FF05E0204600F0B7
:1036700059F8204600F098F900202077F00619D577
:1036800015F0100016D020686FF0100101610821BC
:103690002177C06910F4407F04D02046FFF798FFDF
:1036A00006E000BF204600F03DF8204600F07CF91F
:1036B00000202077F00718BF15F0010002D1300676
:1036C00009D412E020686FF001010161204600F08A
:1036D0006DF9300609D515F0800006D020686FF02E
:1036E000800101612046FFF70FFD700609D515F036
:1036F000400006D020686FF040010161204600F0D4
:103700008FF9B00658BF70BD15F0200008D02168B1
:103710006FF0200220460A61BDE87040FFF7F6BC5A
:1037200070BD00007047000090F83C30012B04BFD2
:10373000022070474FEAB202032A00F2FF802DE90F
:10374000F043DFE802F003B13F7F00BF036840F2BF
:1037500000461C6A1A6A24F0020422F001021A626E
:103760001A46D3F804C052F818EF8F6843F4806506
:10377000C4F20106B54244EA070405D1CF6824F03B
:103780000C0427F004073C430F68B54206D1D1E989
:1037900005582CF440762E4346EA080C2EF07306AA
:1037A0003743C3F804C09F614F6809695F631C62B7
:1037B0009F6947F008079F619F6927F004079F6191
:1037C000B1E000BF036840F200481C6A1A6A24F4A2
:1037D000007422F480721A621A46D3F804C052F8B8
:1037E0001CEF8F6843F48065C4F20108454544EA44
:1037F000072408D1CF6840F2FF463F0224F440641A
:1038000027EA06063443D1F80090454506D1D1E9B0
:1038100005562CF440572E4347EA061C2EF073073A
:1038200047EA0907C3F804C0DF614F680969DF632D
:103830001C62DF6947F00807DF61DF6927F00407D2
:10384000DF6170E0036840F20045D3F820C01A6AD7
:1038500043F4806722F480521A621A465C6852F878
:103860001C8FD1F800E08E68C4F20105AF4204D18C
:103870004D6924F4804444EA85142CF4005747EA47
:10388000063728F4E64646EA0E265C60DE614E689E
:1038900009691E641F62DF6947F40067DF61DF6941
:1038A00027F48067DF613DE0036840F200481C6A4E
:1038B0001A6A24F0200422F010021A621A46D3F881
:1038C00004C052F818EF8F6843F48065C4F2010811
:1038D000454544EA071407D1CF686FF0400624F04D
:1038E000C00406EA07163443D1F80090454506D1D6
:1038F000D1E905562CF440672E4347EA860C2EF496
:10390000E64747EA0927C3F804C09F614F68096981
:103910009F631C629F6947F400679F619F6927F45A
:1039200080679F6109021368194311600021BDE897
:10393000F043002280F83C20084670470121002215
:1039400080F83C2008467047002804BF01207047DB
:1039500010B5044690F83D0028B9002084F83C00DA
:10396000204600F01FF8022084F83D002068211D49
:1039700001F0B4FA012084F8460084F83E0084F88F
:103980003F0084F8400084F8410084F8420084F845
:10399000430084F8440084F8450084F83D0000208A
:1039A00010BD00007047000070470000016840F241
:1039B000FF70C4F20000814240F20870C2F20000C1
:1039C00014DD40F60002C4F2000291421AD040F623
:1039D0000042C4F20002914218D00022C4F2010257
:1039E000914218BF7047043000680047B1F1804F22
:1039F00010D040F20042C4F2000291420ED11430C5
:103A0000006800471C300068004700BF2430006891
:103A1000004700BF0C300068004700BF704700003F
:103A20007047000090F84230202B0BD194460A4694
:103A300000294FF0010118BFBCF1000F06D1084664
:103A4000704700BF02210846704700BFB0B582B082
:103A5000012101630025222145638262A0F82CC068
:103A6000456480F84210C36B45F2852E45F2E5347B
:103A7000C0F6000EC0F600040168C3E90FE445F289
:103A80000914C0F60004C3E913450431044618467E
:103A90006346FDF7C9FB0195216820460A6801923B
:103AA000496801910199216931B300BF016851E86A
:103AB000031F026841F4807142E80313E3B1016817
:103AC00051E8031F026841F4807142E803139BB17F
:103AD000016851E8031F026841F4807142E8031352
:103AE00053B1016851E8031F026841F4807142E854
:103AF0000313002BDAD100BF016851E8051F0268EB
:103B000041F0010142E80513BBB3016851E8051F0C
:103B1000026841F0010142E8051373B3016851E8FE
:103B2000051F026841F0010142E805132BB301684B
:103B300051E8051F026841F0010142E80513002B1E
:103B4000DAD11AE0016851E8051F026841F040012E
:103B500042E80513DBB1016851E8051F026841F036
:103B6000400142E8051393B1016851E8051F02685E
:103B700041F0400142E805134BB1016851E8051FCF
:103B8000026841F0400142E80513002BDAD1016BD5
:103B9000012933D10021009101680A680092496827
:103BA00000910099016851E8031F026841F010017B
:103BB00042E80313DBB1016851E8031F026841F0DA
:103BC000100142E8031393B1016851E8031F026832
:103BD00041F0100142E803134BB1016851E8031FA3
:103BE000026841F0100142E80313002BDAD10021F2
:103BF00002B0BDE8B0400846704700BF012102B0E6
:103C0000BDE8B0400846704770B50446006844F609
:103C1000FF32C4F20002904218DD44F60042C4F2C2
:103C20000002904224D045F20002C4F20002904209
:103C300024D041F20002C4F20102904218BF70BDCC
:103C400040F26472C2F2000222E000BF44F200427D
:103C5000C4F20002904217D044F60002C4F20002FF
:103C6000904229D140F68412C2F2000210E000BF57
:103C700040F69422C2F200020AE000BF40F6A432ED
:103C8000C2F2000204E000BF40F67402C2F2000279
:103C900002F5867002F18405036802F5827602F56A
:103CA0008472284611809847328820462946BDE80C
:103CB0007040FFF7B7BE00BF70BD00007047000046
:103CC000B0B582B001680A68CC684B6902F02F0574
:103CD000202D04F0200505D125B102B0BDE8B0408B
:103CE00001F08CBB5FEA027C1EBF03F0010E04F4FE
:103CF000907313EB0E0341D1036BD50618D5012B3E
:103D000016D114F0100313D0002201920A68019218
:103D10004A680192019A496949064BD4818DC28D46
:103D2000C38D002B18BF914240F0F48102B0B0BDAA
:103D300013062DD514F080032AD090F84120212AB3
:103D4000F4D18268B2F5805F03D10269002A00F0E5
:103D50006782026A531C036212784A60C28C013A7D
:103D60001304C284E2D1C86820F08000C860C8682B
:103D700040F04000C86002B0B0BD00BFD30718BF1C
:103D800014F4807340F0D080530700F1D380D8E062
:103D90005206CBD514F04002C8D0CA6822F04002C7
:103DA000CA60202180F8411002B0BDE8B04000F0A8
:103DB000D1BB00BFC16B0A68526893B2002BB5D06B
:103DC000858DAB42B2D2C285C969B1F5807F00F062
:103DD000A080016851E8031F026821F4807142E865
:103DE0000313DBB1016851E8031F026821F48071FD
:103DF00042E8031393B1016851E8031F026821F4FC
:103E0000807142E803134BB1016851E8031F026857
:103E100021F4807142E80313002BDAD1016851E8E4
:103E2000051F026821F0010142E80513BBB30168D8
:103E300051E8051F026821F0010142E8051373B340
:103E4000016851E8051F026821F0010142E80513ED
:103E50002BB3016851E8051F026821F0010142E817
:103E60000513002BDAD11AE0016851E8051F02683A
:103E700021F0400142E80513DBB1016851E8051F5C
:103E8000026821F0400142E8051393B1016851E84E
:103E9000051F026821F0400142E805134BB101689B
:103EA00051E8051F026821F0400142E80513002B8C
:103EB000DAD1202180F8421000210163016851E825
:103EC000031F026821F0100142E80313DBB101680F
:103ED00051E8031F026821F0100142E8031393B177
:103EE000016851E8031F026821F0100142E8031342
:103EF0004BB1016851E8031F026821F0100142E84C
:103F00000313002BDAD1C16B04460846FCF79EFF71
:103F1000204602214163818DC28D891A89B202B087
:103F2000BDE8B040FFF770BE436C43F0010343644B
:103F3000530706D5BEF1000F03D0436C43F00203D4
:103F40004364930706D5BEF1000F03D0436C43F0E2
:103F500004034364BCF1000F06D55EEA050303D0F9
:103F6000436C43F008034364436C002B3FF4DEAE24
:103F7000920605D525B1044601F040FA2168204695
:103F80004969426C01F0400102F00802891800F012
:103F9000B98000BF016851E8031F026821F49071E5
:103FA00042E80313BBB3016851E8031F026821F420
:103FB000907142E8031373B3016851E8031F02686C
:103FC00021F4907142E803132BB3016851E8031FF9
:103FD000026821F4907142E80313002BDAD11AE051
:103FE000016851E8051F026821F0010142E805134C
:103FF000DBB1016851E8051F026821F0010142E8C8
:10400000051393B1016851E8051F026821F0010111
:1040100042E805134BB1016851E8051F026821F021
:10402000010142E80513002BDAD1016B012924D1EB
:10403000016851E8031F026821F0100142E80313F0
:10404000DBB1016851E8031F026821F0100142E86A
:10405000031393B1016851E8031F026821F01001B6
:1040600042E803134BB1016851E8031F026821F0D5
:10407000100142E80313002BDAD1202180F842100E
:104080000021016301684969490640F1C380016864
:1040900051E8051F026821F0400142E80513DBB139
:1040A000016851E8051F026821F0400142E805134C
:1040B00093B1016851E8051F026821F0400142E810
:1040C00005134BB1016851E8051F026821F040015A
:1040D00042E80513002BDAD1C16B002900F09A8069
:1040E00045F2FD02C0F60002044608460A65FCF7E8
:1040F000F5FE00283FF41AAEE06B016D02B0BDE89A
:10410000B04008470446FFF7D9FD0020606402B0C4
:10411000B0BD00BF891A00BF026852E8032F0368D0
:1041200022F4907243E80325BDB3026852E8032FDE
:10413000036822F4907243E8032575B3026852E8DD
:10414000032F036822F4907243E803252DB302681D
:1041500052E8032F036822F4907243E80325002DF0
:10416000DAD11AE0026852E8052F036822F0010252
:1041700043E80525DDB1026852E8052F036822F007
:10418000010243E8052595B1026852E8052F03684E
:1041900022F0010243E805254DB1026852E8052FDF
:1041A000036822F0010243E80525002DDAD1202220
:1041B00080F8422000220263026852E8032F03685D
:1041C00022F0100243E80325DDB1026852E8032F14
:1041D000036822F0100243E8032595B1026852E813
:1041E000032F036822F0100243E803254DB1026853
:1041F00052E8032F036822F0100243E80325002D44
:10420000DAD1022289B2426302B0BDE8B040FFF7C2
:10421000FBBC00BF02B0BDE8B040FFF74FBD00BF20
:10422000026A32F8023B6FF35F234B60026295E54E
:10423000002804BF0120704710B5044690F84100E3
:1042400028B9002084F84000204600F021F82420FE
:1042500084F841002068C16821F40051C160204603
:1042600001F04CF92068016921F490410161416934
:1042700021F02A014161C16841F40051C160002070
:104280002021606484F8411084F84210606310BDFE
:104290002DE9F04786B00446006844F60001C4F2F8
:1042A000000100268842CDE90466CDE90266019648
:1042B00000F0F28041F20041C4F20101884277D05F
:1042C00041F20001C4F20101884240F03C81002724
:1042D00043F630000097C4F202004169002541F026
:1042E000100141614169C4F2020501F01001009121
:1042F00000990097016801AE41F002010160016878
:104300004FF0020901F00201009100990097016845
:104310004FF0030841F00101016000684FF0070A07
:1043200000F00100009000988020019005F5806069
:104330003146CDE90297CDF81080CDF814A0FCF7F6
:10434000E7FF4FF40070CDE9010903A880E880057C
:1043500028463146FCF7DCFF46F22800C4F2020092
:1043600042F2845500F58C60C2F200054FF4806281
:104370004FF0006185E88300C5E903724FF4803097
:1043800005F12002042182E803012846C5E90577EA
:10439000EF61C5E90B77FCF795FE002818BFFCF725
:1043A000EBF8E563AC632520002100222524C5E05D
:1043B00043F630000096C4F20200416946F2280834
:1043C00041F0200141614169032701F02001009182
:1043D000009900960168C4F2020841F040010160B2
:1043E000006801A900F04000009000984FF484405C
:1043F00001900220CDE90206082005900020C4F2B9
:10440000020000F5C0500497FCF782FF42F24465B9
:1044100008F58060C2F200054FF0206AC5E9000A85
:104420004FF4403005F120024FF48069042183C22B
:104430002846C5E90266C5E90496C5E90666C5E9E8
:104440000B66FCF73FFE002818BFFCF795F8E56304
:10445000AC6342F2A46508F58F60C2F2000540210A
:10446000C5E9000A05F1080080E842024FF48030F7
:10447000C5E908062846C5E90566EE61FCF722FE97
:10448000002818BFFCF778F8A563AC634720052126
:104490000022472452E000BF43F630000096C4F2E9
:1044A00002000169032741F480210161016901F4DF
:1044B0008021009100990096016841F0040101609B
:1044C000006801A900F00400009000984FF44060DB
:1044D00001900220CDE90206072005900020C4F2D9
:1044E000020000F500600497FCF712FF42F2E45569
:1044F00046F22800C2F20005C4F202004FF48062C6
:104500004FF0006185E84300C5E903624FF40030D5
:1045100005F12002042183C22846C5E90566EE6143
:10452000C5E90B66FCF7CEFD002818BFFCF724F8A0
:10453000E563AC632720002100222724FDF78EF9D4
:104540002046FDF779F906B0BDE8F0877047000016
:104550007047000070470000FEE7000010B542F20F
:10456000B43046F20041C2F20000C4F2000140F251
:10457000001403220023C0F2010480E80E0000F1C1
:104580000C014FF4C02C4FF4A00E81E80850846158
:104590008383FCF799FA002808BF10BDBDE81040DE
:1045A000FBF7EABF10B542F2DC3046F60001C2F27A
:1045B0000000C4F2000140F2001403220023C0F204
:1045C000010480E80E0000F10C014FF4802C4FF440
:1045D000E00E81E8085084618383FCF775FA0028B7
:1045E00008BF10BDBDE81040FBF7C6BF80B582B064
:1045F000002043F630010190C4F202010A6842F43F
:1046000000120A600A6802F400120192019A0090F6
:104610000868002240F4800008600868002100F467
:104620008000009000980C20FDF718F90C20FDF791
:1046300003F90D2000210022FDF710F90D20FDF7F0
:10464000FBF80F2000210022FDF708F90F20FDF7ED
:10465000F3F8392005210022FDF700F93920FDF794
:10466000EBF83A2005210022FDF7F8F83A20FDF793
:10467000E3F83B2000210022FDF7F0F83B20FDF796
:10468000DBF8442000210022FDF7E8F84420FDF784
:10469000D3F8452005210022FDF7E0F8452002B0BF
:1046A000BDE88040FDF7C8B82DE9F04786B000208E
:1046B00043F630010590CDE90300CDE901000090FB
:1046C000C4F202010A6841F6000442F002020A60E4
:1046D0000A68C4F2020402F002020092009A0090FA
:1046E0000A68402742F040020A600A68012502F089
:1046F00040020092009A00900A6842F001020A60AB
:104700000A6802F001020092009A00900A6842F0E2
:1047100008020A600A6802F008020092009A0090FB
:104720000A6842F004020A600A6802F00402009279
:10473000009A00900A6842F080020A600A6802F05B
:1047400080020092009A00900A6842F020020A60FB
:104750000A6802F020020092009A00900868012284
:1047600040F0100008600868402100F01000009040
:1047700000982046FCF79CFEA4F5C0563046102158
:1047800001224FF01009FCF793FEA4F5A058404613
:1047900001210122FCF78CFECDE9017501AF204615
:1047A0003946CDE90355FCF7B3FD092001904FF4DC
:1047B000041A20463946CDE902A5FCF7A9FDCDE94A
:1047C00001954FF00209304639460395CDF8109017
:1047D000FCF79EFD3020CDE9010AA4F58050394652
:1047E0000395FCF795FD40463946CDE90155CDE9E5
:1047F0000359FCF78DFD062002210022FDF72EF85B
:104800000620FDF719F8092001210022FDF726F8FE
:104810000920FDF711F80A2001210022FDF71EF8FA
:104820000A20FDF709F8172001210022FDF716F8EC
:104830001720FDF701F806B0BDE8F08780B542F219
:10484000047045F60041C2F20000C4F2000141F6D6
:10485000802200234FF4804CC0F2060280E80E0054
:10486000C0E9033CC0E90533C0E90733FCF72CFE7F
:10487000002808BF80BDBDE88040FBF77DBE00007A
:10488000B0B542F63C4043F20001C2F20000C4F26F
:1048900001014FF48272002380E80E0000F10C0148
:1048A0004FF0020C4FF0010E4FF40074382581E8F0
:1048B00008500A21C0E90645C0E90833C0E90A31B9
:1048C000FEF710FB002808BFB0BDBDE8B040FBF705
:1048D00053BE000070B58EB044F2004542F6DC4095
:1048E000C4F201050021C2F2000041F28732CDE995
:1048F0000611CDE90411C0E90051C0E902120161BD
:104900008161FEF789FC002818BFFBF735FE42F6EF
:10491000DC40C2F20000FFF717F8002818BFFBF7D1
:104920002BFE42F6DC446020C2F200040190002617
:1049300001A920460022CDE902660596FEF7F4FEA5
:10494000002818BFFBF718FE20680D96A842CDE995
:104950000B660A9609961BD00021C4F20101884219
:1049600034D1002143F630000891C4F202000268FD
:104970004FF4005642F0100202600068012200F07D
:1049800010000890089805F54C40002315E000BF82
:104990000020089043F63000C4F2020001680322B0
:1049A00041F0200101600068022300F0200008901F
:1049B000089805F550400121402609960226CDE9C8
:1049C0000A6109A9CDE90C32FCF7A2FC0EB070BD5A
:1049D00070B59CB0002542F69440C4F20105002158
:1049E000C2F20000A72241F287331591CDE91311DD
:1049F0001191CDE90F11CDE90D11CDE90B11CDE9E3
:104A00000911CDE90711CDE90511CDE90311CDE972
:104A10000111C0E90052C0E90213C0E9041181612B
:104A2000FEF7FAFB002818BFFBF7A6FD4FF48050F5
:104A3000129042F69440C2F2000012A9FEF7F8FC70
:104A4000002818BFFBF798FD42F69440C2F2000020
:104A5000FEF77AFF002818BFFBF78EFD42F6944060
:104A60000024C2F2000010A9CDE91044FEF776FB45
:104A7000002818BFFBF780FD6020CDE9090442F64D
:104A80009440C2F2000009A90822CDE90B44CDE907
:104A90000D440F94FEF748FE002818BFFBF76CFD8D
:104AA00042F694444FF40050C2F2000400260690EF
:104AB00001A920460596CDE90366CDE90166089671
:104AC000FEF726FB002818BFFBF756FD206844F2CE
:104AD0000041C4F2010188421B96CDE91966CDE977
:104AE000176617D0A84233D1002143F63000169143
:104AF000C4F2020002684FF4005642F01002026055
:104B00000068012200F010001690169805F5883014
:104B1000002314E00020169043F63000C4F2020097
:104B20000168032241F0200101600068022300F0C7
:104B300020001690169805F58A3001214026179618
:104B40000226CDE9186117A9CDE91A32FCF7E0FB7E
:104B50001CB070BD80B586B042F6245040F20042D1
:104B60000021C2F20000C4F20002532340F2E73CED
:104B70000591CDE90311CDE90011C0E90023C0E999
:104B8000021C01618161FEF747FB002818BFFBF79B
:104B9000F3FC4FF48050029042F62450C2F2000021
:104BA00002A9FEF745FC002818BFFBF7E5FC42F61A
:104BB0002450C2F200006946FEF7D0FA002818BF60
:104BC000FBF7DAFC06B080BD80B586B042F66C50CB
:104BD00040F600020021C2F20000C4F2000253239A
:104BE00040F2E73C0591CDE90311CDE90011C0E9A0
:104BF0000023C0E9021C01618161FEF70DFB002862
:104C000018BFFBF7B9FC4FF48050029042F66C508D
:104C1000C2F2000002A9FEF70BFC002818BFFBF748
:104C2000ABFC42F66C50C2F200006946FEF796FA01
:104C3000002818BFFBF7A0FC06B080BD80B586B089
:104C400042F6B45040F600420021C2F20000C4F225
:104C50000002532340F2E73C0591CDE90311CDE971
:104C60000011C0E90023C0E9021C01618161FEF767
:104C7000D3FA002818BFFBF77FFC4FF48050029056
:104C800042F6B450C2F2000002A9FEF7D1FB0028A0
:104C900018BFFBF771FC42F6B450C2F2000069463F
:104CA000FEF75CFA002818BFFBF766FC06B080BD73
:104CB00080B542F6FC5041F20001C2F20000C4F29D
:104CC000010100234FF00C0C4FF4E13280E80E009C
:104CD000C0E90333C0E905C3C361FFF7A9FA00289F
:104CE00008BF80BDBDE88040FBF746BC10B542F66A
:104CF000446044F6000C48F2A062C2F20000C4F224
:104D0000000CC0F201024FF4805300214FF4806E7A
:104D10000424C0E900C2C0E90231C0E904E4C0E9EA
:104D20000611FFF785FA002808BF10BDBDE8104046
:104D3000FBF722BC80B542F68C6041F20041C2F222
:104D40000000C4F2010100234FF00C0C4FF4E132DB
:104D500080E80E00C0E90333C0E905C3C361FFF773
:104D600067FA002808BF80BDBDE88040FBF704BC9F
:104D700080B542F2D80040F20801C2F20000C2F24F
:104D80000001002201F0C4F8002818BFFBF7F4FB73
:104D900042F2D80040F22801C2F20000C2F2000143
:104DA00001F01EFB002818BFFBF7E6FB42F2D8001B
:104DB00040F2C401C2F20000C2F2000100F0CEFDD8
:104DC000002818BFFBF7D8FB42F2D800C2F200005F
:104DD00001F030FB002808BF80BDBDE88040FBF734
:104DE000CBBB0000FEE70000FEE7000042F2587077
:104DF000C2F20000FCF70EBF7047000070470000D1
:104E0000FCF7B0BC70B592B006AC20463021FBF781
:104E1000C9FA002543F640000595CDE90355CDE9D3
:104E200001550095C4F202000168022641F080514C
:104E30000160006800F080500090009847F2000088
:104E40000095C4F20000016841F4804101600068EF
:104E500000F4804000900098012006904FF48030CC
:104E600007904FF480000D9006200E90A820CDE909
:104E70000F060720119020460C96FDF75DFE18B135
:104E800072B600BFFEE700BF0F20CDE901064FF468
:104E9000A05004904FF48050059001A8052103957F
:104EA000FDF734FD10B172B6FEE700BF12B070BD61
:104EB0004EF68850CEF20000016841F470010160A6
:104EC0007047000042F66C50C2F20000FEF782BB51
:104ED00042F6B450C2F20000FEF77CBB10B540F6BB
:104EE000FF3E0368C4F2000E40F2004C7045C4F26D
:104EF000010C25DCB0F1804F2FD040F20042C4F20B
:104F00000002904229D040F60002C4F20002904212
:104F100023D041F6FF72C4F20002904227DC7045B4
:104F20003ADCB0F1804F5BD040F20042C4F20002A4
:104F3000904255D040F60002C4F200024EE000BF9D
:104F400040F60042C4F20002904206D0604504D010
:104F50000022C4F201029042DBD14A6823F07003C0
:104F6000134341F6FF72C4F200029042D7DD43F6CC
:104F7000FF72C4F20102904220DC42F20002C4F24D
:104F8000000290422CD00022C4F20102904227D0AD
:104F9000604525D028E000BF40F60042C4F2000280
:104FA00090421DD041F60002C4F20002904217D098
:104FB00041F60042C4F2000210E000BF44F20002D9
:104FC000C4F2010290420BD044F60002C4F2010286
:104FD000904205D044F20042C4F20102904203D153
:104FE000CA6823F44073134323F080024B69D1F85D
:104FF00000E08C681A430260C46240F48062C0F82A
:1050000028E0624504BF096901630121416101692A
:10501000C90708BF10BD016921F00101016110BD80
:10502000036840F2FF72C4F2000240F2087C93422F
:10503000C2F2000C14DD40F60002C4F200029342FA
:105040001CD040F60042C4F2000293421CD0002261
:10505000C4F20102934218BF70470CF104031DE033
:10506000B3F1804F16D040F20042C4F200029342E6
:1050700017D10CF114030CF1100C0FE00CF11C0310
:105080000CF1180C0AE000BF0CF124030CF1200C09
:1050900004E000BF0CF10C030CF1080CCCF800008C
:1050A0001960704710B542F2B43047F64161C2F260
:1050B0000000C0F6000102F011FF42F2DC3047F6BA
:1050C0006D61C2F20000C0F6000102F007FF42F677
:1050D000B454C2F2000447F68151C0F600012046E4
:1050E000FFF79EFF40F2FC00C2F2000003F038F828
:1050F0002046BDE81040FEF745B90000806B002156
:10510000C185C184FEF7DABD806B01684A6990F8F9
:105110004130212B2DD112F080022AD00021C184F0
:10512000016851E8031F026821F0C00142E803133F
:10513000DBB1016851E8031F026821F0C00142E8B9
:10514000031393B1016851E8031F026821F0C00105
:1051500042E803134BB1016851E8031F026821F0D4
:10516000C00142E80313002BDAD1202180F841105E
:105170000168496990F84220222A40F07D8011F0B0
:10518000400179D00021C185016851E8031F026800
:1051900021F4907142E80313BBB3016851E8031F87
:1051A000026821F4907142E8031373B3016851E877
:1051B000031F026821F4907142E803132BB30168C6
:1051C00051E8031F026821F4907142E80313002B99
:1051D000DAD11AE0016851E8051F026821F00101E7
:1051E00042E80513DBB1016851E8051F026821F0B0
:1051F000010142E8051393B1016851E8051F0268F7
:1052000021F0010142E805134BB1016851E8051F87
:10521000026821F0010142E80513002BDAD1016B8D
:10522000012924D1016851E8031F026821F010010F
:1052300042E80313DBB1016851E8031F026821F063
:10524000100142E8031393B1016851E8031F02689B
:1052500021F0100142E803134BB1016851E8031F2C
:10526000026821F0100142E80313002BDAD120215B
:1052700080F8421000210163416C41F0100141644B
:10528000FEF71CBD0168806B0968C90500F19F80AD
:105290000021C185016851E8031F026821F4807173
:1052A00042E80313E3B1016851E8031F026821F4E7
:1052B000807142E803139BB1016851E8031F026843
:1052C00021F4807142E8031353B1016851E8031FD0
:1052D000026821F4807142E80313002BDAD100BF89
:1052E000016851E8051F026821F0010142E8051339
:1052F000BBB3016851E8051F026821F0010142E8D3
:10530000051373B3016851E8051F026821F001011C
:1053100042E805132BB3016851E8051F026821F02C
:10532000010142E80513002BDAD11AE0016851E8C7
:10533000051F026821F0400142E80513DBB1016856
:1053400051E8051F026821F0400142E8051393B1BE
:10535000016851E8051F026821F0400142E8051389
:105360004BB1016851E8051F026821F0400142E895
:105370000513002BDAD1202180F84210016B01299E
:1053800025D100BF016851E8031F026821F0100118
:1053900042E80313DBB1016851E8031F026821F002
:1053A000100142E8031393B1016851E8031F02683A
:1053B00021F0100142E803134BB1016851E8031FCB
:1053C000026821F0100142E80313002BDAD100211A
:1053D0004163016B012918BFFFF7B8B8818DFEF753
:1053E00013BC0000806B01214163016B012918BFD0
:1053F000FFF7AEB8818D4908FEF706BC81B090F882
:105400004210222921D183680246B3F5805F09D179
:1054100052F8281F52F8183C002B63D003685B68D1
:105420000AE000BF52F8281F13B90369002BF5D01A
:1054300003685B6803F07F030B7011680131116032
:10544000C18D01390A04C18502D001B0704700BF87
:105450000168CA6822F02002CA60CA6822F4807219
:10546000CA604A6922F001024A61202180F8421094
:1054700000214163026B012A3CD10163016851E8BC
:10548000031F026821F0100142E80313DBB1016839
:1054900051E8031F026821F0100142E8031393B1A1
:1054A000016851E8031F026821F0100142E803136C
:1054B0004BB1016851E8031F026821F0100142E876
:1054C0000313002BDAD101680A68D20606D5002240
:1054D00000920A680092496800910099818D01B09C
:1054E000FEF792BB026852686FF35F2221F8022B2D
:1054F0008162A5E701B0FFF729B80000B0B5044606
:10550000006804F108030ECB0569194325F44055E2
:105510002A4302616269E3691143C268194349F28F
:105520000C639A431143C1604169A26921F440713F
:1055300041F20043114340F48062C4F201039A42F5
:10554000416103D1FDF7AEFA02E000BFFDF796FA24
:10555000E1694FF69C7563681922C0F6FF75B1F5D5
:10556000004FA0FB02011FD15A00DB0FFAF7A2FE89
:1055700048F21F51C5F2EB11A0FB01235A0905F1B6
:10558000805302FB0300322303EBC000A0FB0101A8
:105590004FF4F87000EA111000EB0210C1F3421151
:1055A000084421688860B0BD9A009B0FFAF782FE1C
:1055B00048F21F51C5F2EB11A0FB01235A0902FB6F
:1055C0000500322303EB0010A0FB0101F02000EAEC
:1055D000511000EB0210C1F34311084421688860A8
:1055E000B0BD000042F6FC50C2F20000FEF768BBFE
:1055F00042F64460C2F20000FEF762BB42F68C60E5
:10560000C2F20000FEF75CBBD0F8D42200EB820CA3
:10561000DCF8C032002B04BF03207047B0B501F0A6
:105620000F0404EB840200EB820E5EF8182F5AB1CF
:10563000D0F8C85204EBC40405EB8404E469B2FB5F
:10564000F4F505FB14229AB10020C3F81402DCF82B
:10565000C422D2F810C0BCF1000F08BFB0BDD3F80F
:1056600008020A4603F50471E0470020B0BD00BF00
:1056700000220023CEF8002000F094FE0020B0BDF0
:10568000B0B5D0F8D42200EB8202D2F8C0529DB15E
:10569000044600F01FFDD4F8D412C5F80C0204EB48
:1056A0008101D1F8C412D5F80402CA6805F5037166
:1056B00090470020B0BD00BF0320B0BD70B5812170
:1056C000044600F04DFC002520460121258700F00E
:1056D00047FC20468221A4F8785100F041FCD4F820
:1056E000D402E56404F5307656F8201089B104EB55
:1056F0008000D0F8C40240688047D4F8D40256F83D
:10570000200001F04BF9D4F8D40246F82050C4F838
:10571000BC52002070BD000010B5D0F8D41200EBD0
:105720008100D0F8C0428CB1D0F8C41259B194F8BD
:105730000002FF2807D08B6894F801222146984781
:10574000FF2084F80002002010BD00BF032010BD20
:10575000014640F2A4000A22C2F200000A8070470B
:10576000F0B581B040F26007C2F200070446384647
:10577000822100F00BFB06463846012100F006FBB3
:1057800005463846812100F001FB002E1CBF102188
:10579000B171002D1CBF4021A98000281CBF4021F1
:1057A0008180432140F26000C2F20000218001B0FC
:1057B000F0BD0000F0B581B040F26007C2F2000712
:1057C00004463846822100F0E1FA064638460121B7
:1057D00000F0DCFA05463846812100F0D7FA002EA9
:1057E0001CBF1021B171002D1CBF4FF40071A980A6
:1057F00000281CBF4FF400718180432140F26000FB
:10580000C2F20000218001B0F0BD0000F0B581B00F
:1058100040F26007C2F2000704463846822100F0D9
:10582000B5FA06463846012100F0B0FA054638467A
:10583000812100F0ABFA002E1CBF1021B171002DA8
:105840001CBF4021A98000281CBF4021818043212A
:1058500040F26000C2F20000218001B0F0BD000003
:105860002DE9F04104464FF4077001F099F8002843
:1058700050D04FF407710546FAF794FDD4F8D402DE
:10588000402704EB8000C0F8C052207CC4F8BC5212
:10589000002808BF4FF400772046812102223B46B2
:1058A000022600F095FC4FF001082046012102225B
:1058B0003B46A4F8388000F08BFC1020A4F84E0082
:1058C0002046822103220823A4F8788100F080FC7E
:1058D000D4F8D4020027C5F8047204EB8000D0F895
:1058E000C402A4F84C8000688047C5F81472C5F85B
:1058F0001872D5F8042252B1207C012100282046DC
:1059000014BF40234FF4007300F076FC00263046AD
:10591000BDE8F081D4F8D402002104EB8000C0F887
:10592000C0120220BDE8F081D0F8D41200EB810152
:10593000D1F8C012002904BF0320704780B590F849
:1059400010C0D1F8042240230121BCF1000F08BF90
:105950004FF4007300F050FC002080BD00290FBF01
:105960000320D0F8D42200EB8200C0F8C41218BF84
:1059700000207047D0F8D42200EB8200D0F8C0029B
:1059800000280EBF0320C0F804120020704700005A
:10599000D0F8D43200EB8300D0F8C00200280FBF4B
:1059A0000320C0F80812C0F8102200207047000041
:1059B000F0B581B0D0F8D42200EB8203D3F8C04216
:1059C0000022002C8DF80320ADF8002060D00D7867
:1059D00015F0600218D0202A58D1CA88002A29D090
:1059E0006DB2B5F1FF3F2FDD4978402A84F80012EF
:1059F000214628BF402284F8012200F077F80024D5
:105A0000204601B0F0BD00BF4A780B2A3ED80024E2
:105A1000DFE802F008063C3C3C3C3C3C3C3C2A387D
:105A2000EEE700BF90F89C22032A2FD1694602229C
:105A300021E000BFD3F8C402002283684878002424
:105A40009847204601B0F0BDD3F8C43206469D68A1
:105A50004B780F4618462146A847FA883046072A51
:105A600028BF0722214606E090F89C22032A0DD188
:105A70000DF10301012200F053F80024204601B08B
:105A8000F0BD00BF90F89C22032AB9D000F022F8A4
:105A90000324204601B0F0BD80B5D0F8B82252688A
:105AA0009047002818BF032080BD000000207047E9
:105AB0000020704780B513460A46002100F09CFB89
:105AC000002080BD80B513460A46002100F06AFC24
:105AD000002080BD10B58021044600F031FC204636
