:020000040800F2
:10000000E01200201D02000831210008551E0008E2
:100010002D2100083105000891260008000000008D
:100020000000000000000000000000003521000872
:100030004B050008000000003321000837210008AC
:1000400037020008370200083702000837020008AC
:10005000370200083702000837020008370200089C
:10006000370200083702000837020008370200088C
:10007000330500083F050008370200083702000872
:10008000370200083702000837020008370200086C
:10009000370200083702000837020008370200085C
:1000A000370200083702000837020008370200084C
:1000B000370200083702000837020008370200083C
:1000C000370200083702000837020008370200082C
:1000D00037020008370200083702000883260008AC
:1000E000370200083702000837020008000000004D
:1000F0000000000000000000000000000000000000
:10010000000000000000000037020008370200086D
:1001100037020008370200083702000837020008DB
:1001200037020008370200083702000837020008CB
:10013000370200080000000000000000370200083D
:1001400037020008370200083702000837020008AB
:1001500000F002F800F052F814A696E8000CB24441
:10016000B344DA4501D100F049F8BAE80F000FA610
:1001700096E83000A5EB040504EB0607AAEB07049C
:10018000A7F101074FEA15154FEA3414A4F1010451
:10019000AC4201D300F032F813F0010F18BFFB1A84
:1001A00043F0010300F001F8DBE718475432000088
:1001B00074320000103A24BF78C878C1FAD85207C8
:1001C00024BF30C830C144BF04680C6070470000D1
:1001D000704700000023002400250026103A28BFA5
:1001E00078C1FBD8520728BF30C148BF0B607047A9
:1001F0001FB500F01BF91FBD10B510BD00F05EF972
:100200001146FFF7F5FF02F009FC00F07CF903B49A
:10021000FFF7F2FF03BC00F083F9000009488047B4
:1002200009480047FEE7FEE7FEE7FEE7FEE7FEE7D8
:10023000FEE7FEE7FEE7FEE704480549054A064BF0
:1002400070470000B121000851010008E00C0020B7
:10025000E0120020E00E0020E00E002053EA020C25
:1002600000F069802DE9F04B4FF00006002B1FBF16
:10027000B3FA83F503FA05F424FA05F65E4012BFDB
:100280001643B2FA82F502FA05F4C5F120051EBF45
:1002900022FA05FC44EA0C04203556EA044C4FEAE5
:1002A000144418BF641C4FF000084FF0000990423E
:1002B00071EB030C39D3002919BFB1FA81F701FAA8
:1002C00007F6B0FA80F700FA07F6C7F120071EBF5D
:1002D00020FA07FC46EA0C062037B6FBF4FCA7EB35
:1002E0000507103F07F01F0BCBF120062CFA06F68E
:1002F0000CFA0BFB44BFB3460026202FA4BF5E467A
:100300004FF0000B5BEA060C08BF4FF0010B19EB36
:100310000B0948EB0608ABFB027C06FB02CC0BFB8F
:1003200003CCC01B71EB0C01C1E70B4602464146F2
:100330004846BDE8F08B13B5084318BF4FF0FF30B7
:100340000146AFF30080BDE81C407047032A40F22D
:10035000308010F0030C00F0158011F8013BBCF167
:10036000020F624498BF11F801CB00F8013B38BF7F
:1003700011F8013BA2F1040298BF00F801CB38BF8D
:1003800000F8013B11F0030300F06680083AC0F06A
:10039000088051F8043B083A51F804CBA0E8081053
:1003A000F5E7121D5CBF51F8043B40F8043BAFF386
:1003B0000080D20724BF11F8013B11F801CB48BFE0
:1003C00011F8012B24BF00F8013B00F801CB48BF16
:1003D00000F8012B70474FF0000200B51346944619
:1003E0009646203922BFA0E80C50A0E80C50B1F18D
:1003F0002001BFF4F7AF090728BFA0E80C5048BFA1
:100400000CC05DF804EB890028BF40F8042B08BF3E
:10041000704748BF20F8022B11F0804F18BF00F83A
:10042000012B7047704770477047000008487CB543
:100430007844009007487844009C0546019004E009
:100440002046016808448047241DAC42F8D17CBD99
:10045000EC2F0000EA2F000010B5203AC0F00B800E
:10046000B1E81850A0E81850B1E81850A0E81850AA
:10047000203ABFF4F5AF5FEA027C24BFB1E8185020
:10048000A0E8185044BF18C918C0BDE810405FEA82
:10049000827C24BF51F8043B40F8043B08BF7047FE
:1004A000D20728BF31F8023B48BF11F8012B28BF03
:1004B00020F8023B48BF00F8012B7047754600F05A
:1004C0002BF8AE4605006946534620F007008546E6
:1004D00018B020B5FFF7B0FEBDE820404FF0000691
:1004E0004FF000074FF000084FF0000BAC46ACE8AF
:1004F000C009ACE8C009ACE8C009ACE8C00921F00B
:1005000007018D46704710B50446AFF300802046C2
:10051000BDE81040FFF77BBE004870471000002088
:1005200001491820ABBEFEE726000200704700001C
:10053000FEE740F6E420C2F2000000F0B9B840F651
:10054000A020C2F2000000F0B3B87047EFF31080B3
:1005500072B600BFFEE7014690F82100022813D1D1
:100560000868D1E90FC3026822F00E020260026837
:1005700022F001020260012000FA03F2CCF804200C
:1005800081F82100002002E004208863012000227D
:1005900081F82020704790F82110022925D10268A7
:1005A00040F2040C1368C4F2020C23F00E03136033
:1005B00013680CF17C018A4223F00101116018D903
:1005C00040F20841C4F202018A424AD040F21C4182
:1005D000C4F202018A423FD040F23041C4F202012B
:1005E0008A4240D14FF4807345E0042181630121A8
:1005F0005CE04321C4F202018A420EDD6B21C4F2A9
:1006000002018A421BDC4421C4F202018A4237D033
:100610005821C4F202018A4220E00821C4F20201FA
:100620008A422BD01C21C4F202018A422ED03021F2
:10063000C4F202018A4211D14FF4807227E06C218A
:10064000C4F202018A421ED08021C4F202018A4211
:1006500004D14FF080721AE010230CE04FF4803286
:1006600015E0012307E00CF588614FF480338A42DE
:1006700008BF4FF48053CCF800340AE0012206E0B2
:100680004FF4805203E04FF4801200E01022CCF8C7
:100690000020012180F82110426B002180F82010F9
:1006A00022B180B590470021BDE8804008467047E0
:1006B00010B5D0E90FE3D0F800C0DEF80020DCF878
:1006C0000010DA4054072BD511F0040428D0DCF8D0
:1006D0000010890605D4DCF8001021F00401CCF8E4
:1006E00000100422C4F2020202F17C018C455FD9A1
:1006F00040F20841C4F202018C4500F0A58040F2AE
:100700001C41C4F202018C4500F0998040F2304156
:10071000C4F202018C4540F099804FF480619DE065
:1007200094072ED511F002042BD0DCF800108906B6
:1007300008D4DCF8001021F00A01CCF800100121E7
:1007400080F821100422C4F2020202F17C018C45DF
:1007500042D940F20841C4F202018C4500F0A78062
:1007600040F21C41C4F202018C4500F0998040F235
:100770003041C4F202018C4540F0A1804FF4007179
:10078000A5E0120740F1BD8011F0080100F0B9802A
:10079000DCF8001021F00E01CCF80010012101FA64
:1007A00003F2CEF80420816380F82110016BA3E0EE
:1007B0004321C4F202018C4522DD6B21C4F2020107
:1007C0008C452FDC4421C4F202018C4571D05821A4
:1007D000C4F202018C4534E04321C4F202018C458D
:1007E0003FDD6B21C4F202018C454CDC4421C4F294
:1007F00002018C4577D05821C4F202018C4553E0A8
:100800000821C4F202018C454CD01C21C4F2020123
:100810008C455FD03021C4F202018C4511D14FF4D8
:10082000806158E06C21C4F202018C4544D08021E3
:10083000C4F202018C4504D14FF080614BE04021AD
:100840000CE04FF4802146E0042107E002F58863C4
:100850004FF480219C4508BF4FF48041C2F800143A
:100860003AE00821C4F202018C453AD01C21C4F2BE
:1008700002018C453DD03021C4F202018C4513D1D8
:100880004FF4007136E06C21C4F202018C452DD08A
:100890008021C4F202018C4506D14FF0007129E09D
:1008A000202114E0042116E04FF4003122E002215F
:1008B0000DE04FF480410EE04FF480010BE002F5B3
:1008C00088634FF400319C4508BF4FF40051C2F8D3
:1008D000001410E040211160C16A91B1BDE81040E0
:1008E0000847022106E04FF4005103E04FF40011E5
:1008F00000E020211160816A0022002980F8202078
:10090000ECD110BD014600284FF0010008BF704730
:100910002DE9F04340F20043C4F20203D1F800E0B5
:100920004FF6F83203F1080CCBF6FD72E64538BFFE
:1009300002F5806202EB0E0C4CF6CD42CCF6CC42B6
:10094000ACFB022C01F104096FF0030699E8800367
:1009500038BFA3F5806306EA9C06C1E90F3602237F
:1009600081F82130DEF8003043F6F076B3433B43A4
:10097000D1E9046243EA080343EA0903D1E90645E1
:1009800033431A4322432A43CEF8002000228A63CD
:1009900081F8210081F820200020BDE8F043704755
:1009A00090F820C0BCF1010F04BF02207047F0B5E1
:1009B0004FF0010E80F820E090F821C0BCF1010F4B
:1009C00026D14FF0020C80F821C04FF0000CC0F887
:1009D00038C0D0E900C4C56AC66BDCF80070102CC2
:1009E00027F00107CCF80070006C0EFA00F0706080
:1009F0000846CCF8043004BF10460A46CCF808007C
:100A0000CCF80C20DCF800003DB140F00E000CE00A
:100A1000002180F820100220F0BD20F00400CCF866
:100A20000000DCF8000040F00A00CCF80000DCF820
:100A3000000040F00100CCF800000020F0BD0000F4
:100A4000B0B5044600F00DF9054640F20400C2F2CC
:100A500000000078611C18BF044400BF00F001F9D9
:100A6000401BA042FAD3B0BD2DE9F04F82B00E6812
:100A7000002E00F0EE8041F20042C4F20102042395
:100A800040F2004E904208BF03234FF6FF7CC4F2B1
:100A9000010E009300240123C1F2100C4FF0000A54
:100AA0004FF0000903FA0AFB16EA0B0800F0C880B1
:100AB0004E68664508DC032E34D8DFE806F02802CD
:100AC0003E42D1F80C9043E04FF6FF72C1F2210292
:100AD00096420DDC0022C1F21102964217D000228C
:100AE000C1F21202964212D00022C1F221020CE0A1
:100AF0000022C1F22202964209D00022C1F2310244
:100B0000964204D00022C1F23202964220D18A6875
:100B100082B1012A14BFC0F814B0C0F810B04FF071
:100B2000080915E0112E0FD0122E11D1CA6802F15A
:100B30000C090DE04FF004090AE0CA6802F1080947
:100B400006E04FF0000903E0CA6802F1040900BFA3
:100B500002462646B8F5807F24BF0432203E17683F
:100B60000F25B54027EA050509FA06F63543156055
:100B7000CA79D20664D541F21803C4F202031A6896
:100B8000AEF57E7642F001021A601A6802F00102A8
:100B90000192019A2AF0030256F802B040F60002D0
:100BA000C4F20102904210D040F60042C4F20102A9
:100BB000904208D041F20002C4F20102009F90422C
:100BC00008BF022702E0012700E0002704F00C0321
:100BD0000F229A402BEA020207FA03F34FEA9A0522
:100BE0001A4346F825204E6840F20C45F202DEF822
:100BF000082054BF22EA080242EA0802C4F20105B2
:100C0000CEF808202A68B30254BF22EA080242EA5A
:100C100008022A60B303DEF8042054BF22EA080267
:100C200042EA0802F303CEF80420DEF800204FF079
:100C3000010354BF22EA080242EA0802CEF800206B
:100C40000E680AF1010A36FA0AF204F104047FF48C
:100C500029AF02B0BDE8F08F8068084018BF0120BE
:100C6000704740F6DC40C2F200000068704740F276
:100C7000040040F6DC41C2F20000C2F2000100783C
:100C80000A6810440860704780B542F20000C4F260
:100C90000200016841F010010160032000F08BF8B0
:100CA0000F2000F004F800F02AF8002080BDB0B555
:100CB00040F20402C2F2000240F200011278C2F2D5
:100CC00000014FF47A730968B3FBF2F20446B1FBFA
:100CD000F2F1084600F0C6FB0F2C4FF001050CD8CE
:100CE00058B94FF0FF3021460022002500F038F8B7
:100CF00040F20800C2F2000004602846B0BD82B095
:100D000041F21800C4F202000168022241F0010120
:100D10000160016801F0010101910199416841F010
:100D200080514160406800F080500090009804209D
:100D3000C4F20100016862F31A61016002B07047F9
:100D400000280CD400F01F01012202FA01F11C223C
:100D500002EAD0004EF20012CEF20002815070473B
:100D600010B54EF60C5CCEF2000CDCF80030C3F38C
:100D7000022E8EF00704042C28BF0424BEF10303C6
:100D80004FF0FF3E0EFA04F438BF0023A143994010
:100D90000EFA03F39A43114300F00F0200F160438F
:100DA0000901043A03F564436244002848BF02F194
:100DB0000C03197010BD4EF60C51CEF200010A68FA
:100DC0004FF6FF031A4060F30A2242F0806040F0C1
:100DD000FD70086070470000002800F081802DE958
:100DE000F04381B042F20008C4F202080446D8F889
:100DF00000000D4600F0070088420CD2D8F8000031
:100E000020F007002843C8F80000D8F8000000F0E0
:100E10000700A8426FD1206841F204098107C4F29B
:100E2000020917D5410705D5D9F8001041F4E06152
:100E3000C9F80010010705D5D9F8001041F4605138
:100E4000C9F80010D9F80010A26821F0F001114390
:100E5000C9F80010C00745D1D8F8000000F007001D
:100E6000A8420CD9D8F8000020F007002843C8F8A1
:100E70000000D8F8000000F00700A8423BD120682D
:100E8000410707D5D9F80010E26821F4E061114369
:100E9000C9F80010000708D5D9F80000216920F42E
:100EA000605040EAC100C9F8000000F06FF8D9F8BE
:100EB000001043F2E602C1F30311C0F60002515CD8
:100EC00040F2000220FA01F140F20800C2F20000F4
:100ED0000068C2F200021160FFF7E9FE00200BE09B
:100EE00001207047606859F8041C022807D00128C7
:100EF00023D1890305D4012001B0BDE8F083890125
:100F0000F9D5D9F8001021F003010843C9F8000011
:100F1000FFF7A7FE064641F2883700BFD9F8000068
:100F2000616800F00C00B0EB810F95D0FFF799FEDF
:100F3000801BB842F2D90320DEE78907DBD5E0E762
:100F400040F2000041F20401C2F20000C4F20201CA
:100F50000068096843F2F602C1F30221C0F60002FC
:100F6000515CC840704740F2000041F20401C2F2F7
:100F70000000C4F202010068096843F2F602C1F3FE
:100F8000C221C0F60002515CC8407047B0B541F2C2
:100F90002C01C4F2020151F8283C03F00C0008288F
:100FA00041F20020C0F27A0018BFB0BDC3F3834500
:100FB00018A2525DDB0305D440F60010C0F23D00DC
:100FC0005043B0BD0B6817A403F00F03E35C0C683B
:100FD000E40303D45043B0FBF3F013E00C6809685A
:100FE000C4F3031404F1010C42F20044C1F30321E1
:100FF000C0F2F40401FB0040A0FB0201ACFB0323A0
:10100000FFF72CF9A5F10D01B1FA81F14909C840AA
:10101000B0BD00BF0000040506070809000000007D
:10102000000D00000102030405060708090A0B0C65
:101030000D0E0F1000284CD02DE9F04182B004466F
:10104000007841F20006C007C4F202060BD07068B7
:1010500000F00C0004283ED13068800303D5A0685E
:10106000002800F0B4812078800719D5706810F04E
:101070000C0F07D0706800F00C00082847D170688A
:10108000C00344D43068800703D56069012840F06C
:101090009E813068A16920F0F80040EAC10030600C
:1010A000207800076ED5E069002846D00020C4F201
:1010B00042200121C0F88014FFF7D3FD054600BF90
:1010C000706A80074BD4FFF7CCFD401B0228F7D98C
:1010D00031E101207047706800F00C00082802D14F
:1010E0007068C003B8D4A1683068002900F0258179
:1010F000B1F5A02F00F00C81B1F5803F00F00C811C
:1011000020F480303060306820F4802006E160698F
:10111000002840F20000C4F2422000F0B18001211A
:101120000160FFF79EFD054630688007B1D4FFF7E8
:1011300098FD401B0228F7D9FDE00020C4F24220B0
:101140000021C0F88014FFF78CFD0546706A800707
:1011500018D5FFF786FD401B0228F7D9EBE040F2D7
:101160000000C2F20000006844F6D351C1F26201EF
:10117000A0FB0101480A019000BF0198411E002810
:101180000191F9D12078400730D4E06A002800F0BE
:1011900008817168C90308D5716801F00C0108293C
:1011A00003D1F16AC90300F11281022852D13068DB
:1011B000C00006D5F06A616B00F0F000884240F094
:1011C00006810027C4F242270020B866FFF749FDD8
:1011D000054600BF3068000140F1C680FFF741FDC1
:1011E000401B64284FF00300F4D9F1E0F0695FEA96
:1011F000C00808D4F06940F08050F061F06900F058
:1012000080500090009847F20007C4F20007386849
:10121000C00510D4386840F480703860FFF721FDB5
:10122000054600BF3868C00505D4FFF71AFD401B0E
:101230006428F7D97FE02169306A002947D0052961
:1012400030D0012932D020F001003062306A20F025
:1012500004002DE0F06A002120F48030F0620020CC
:10126000C4F242208166FFF7FCFC054630680001AD
:1012700040F19780FFF7F5FC401B6428F6D95AE04F
:1012800000210160FFF7EDFC054600BF30688007D4
:101290007FF506AFFFF7E5FC401B02284FF0030087
:1012A000F4D995E040F004003062306A40F001006B
:1012B0003062FFF7D6FC054641F28837306A800776
:1012C0001DD4FFF7CEFC401BB842F7D933E020F025
:1012D00001003062306A20F004003062FFF7C1FC88
:1012E000054641F2883700BF306A800707D5FFF70F
:1012F000B8FC401BB8424FF00300F5D968E0B8F1E4
:10130000000F3FF542AFF06920F08050F0613CE7FC
:1013100040F480203060306840F480303060FFF767
:10132000A0FC0546306880033FF59DAEFFF799FCB1
:10133000401B6428F6D903204AE020F48030306056
:10134000306820F480203060FFF78BFC054600BF3A
:10135000306880037FF587AEFFF783FC401B64286D
:101360004FF00300F4D933E0F06AD4E90C1220F016
:10137000F0001043F062F06A20F470600843F062FD
:101380000120B866FFF76DFC054600BF306800011C
:1013900007D4FFF766FC401B64284FF00300F5D923
:1013A00016E0256A8DB1706800F00C00082812D193
:1013B000012D0CD07068616A00F480328A4206D137
:1013C000A16A00F47010884201D1002000E00120E1
:1013D00002B0BDE8F0810027C4F242270020386641
:1013E000FFF73FFC022D05460CD100BF306880019D
:1013F00013D5FFF736FC401B02284FF00300F5D948
:10140000E6E700BF30688001DFD5FFF72AFC401B0C
:1014100002284FF00300F5D9DAE7606AB0F5803FA3
:1014200009D1F16A6268E3681143F162F16A21F05F
:101430000F011943F1627168A26A21F4741111431A
:101440000843706001203866FFF70BFC04463068E3
:101450008001BAD4FFF705FC001B02284FF00300FF
:10146000F5D9B5E7411E0020B0EB116F1CBF01207C
:1014700070474EF21002CEF2000251604EF6235138
:10148000CEF20001F0230B700721906011607047CD
:1014900090F83C20012A4FF0020237D010B580F8B6
:1014A0003D200268D2F804E0D2F808C00C682EF0A3
:1014B0007003234340F2FF74C4F20004A24253605D
:1014C0000EDD40F60003C4F200039A4211D042F64A
:1014D0000043C4F201039A420BD040F6004304E0FB
:1014E000B2F1804F05D040F20043C4F200039A42AB
:1014F00004D149682CF08003194391600121002236
:1015000080F83D1080F83C20BDE810401046704740
:10151000002854D02DE9F047044690F83D000D46D0
:1015200028B9002084F83C00204600F04AF8022048
:1015300084F83D00206844F207028168914381608D
:10154000211D00F036FE20684FF6FF788168826921
:10155000D0F820C0D5E9003ED5E9026A43EA010986
:10156000AB6922EA080246EA03234FF6FC46B3437E
:10157000D5E9076742EA0A0229691A4342EA0622C4
:1015800042EA01112CF022026B6942EA0E0241EAA2
:10159000073142EA0312C0F808908161026201201B
:1015A00084F8460084F83E0084F83F0084F8420046
:1015B00084F8430084F83D000020BDE8F087012056
:1015C0007047F0B585B0006840F2FF71C4F20001C9
:1015D00088424FF00001CDE90311CDE901112BDD67
:1015E00040F60001C4F20001884246D040F60041B6
:1015F000C4F20001884263D042F60041C4F2010106
:10160000884240F0808041F21800C4F20200016874
:1016100041F400610160016801F4006100910099EA
:10162000016841F004010160006800F004000090CE
:1016300000984FF440705AE0B0F1804F65D040F20E
:101640000041C4F2000188425DD141F21800C4F2A9
:101650000200416841F002014160416801F002016D
:1016600000910099016841F004010160006800F0F8
:10167000040000900098C02039E041F21800C4F244
:101680000200416841F004014160416801F0040139
:1016900000910099016841F008010160006800F0C4
:1016A000080000900098C0200190002002900220C5
:1016B000039040F60000C4F2010000F580601FE0D6
:1016C00041F21800C4F20200416841F00801416093
:1016D000416801F0080100910099016841F004019E
:1016E0000160006800F00400009000980320019061
:1016F000002002900220039040F60000C4F2010096
:1017000001A9FFF7B1F905B0F0BD41F21800C4F22C
:101710000200416840F6000441F001014160416867
:10172000C4F2010401F0010100910099016801ADCA
:1017300041F0040101600168002601F004010091FC
:1017400000990168022741F00801016000682946FC
:1017500000F00800009000984FF4004001902046EF
:1017600002960397FFF780F9082001A9C1C104F58B
:1017700080602946FFF778F90420C4F2010001686F
:101780004FF6FF42CFF6FF02114041F0E06141F415
:1017900080710160B7E780B590F83E2090F83F3047
:1017A00090F842E090F843C004290DD0D1B9012A45
:1017B0004FF0010208BFBEF1010F45D1022180F8B0
:1017C0003E1080F8421030E0012B4FF0010208BFBC
:1017D000BCF1010F38D1022180F83F1080F843108E
:1017E00000681EE0012A4FF0010208BF012B2BD137
:1017F000BEF1010F28D1BCF1010F25D1022280F8E2
:101800003E2080F83F2080F8422080F8432061B1DC
:101810000068016A21F001010162016A41F00101E1
:10182000016210216FF0100203E0006801216FF0E7
:101830000102036A1A400262026A114301620168EE
:10184000002241F001010160104680BD70B582B0F8
:10185000044690F84200202820D14FF00105F1B154
:10186000EAB1002620462563666300F081FE206B06
:10187000012814D101962068016801914068019007
:10188000019800BF206850E8030F216840F0100065
:1018900041E80302002AF5D1002500E00225284690
:1018A00002B070BD70B50446006844F20042C4F254
:1018B000000290421BD044F60002C4F200029042A3
:1018C00010D043F60002C4F20102904218BF70BD6E
:1018D00040F6D840C2F20000018040F27840C2F2E7
:1018E000000008E040F69000C2F2000003E040F281
:1018F0008460C2F2000000F5017600F5827500F503
:101900000270026828469047328820462946BDE882
:101910007040FFF79BBF7047B0B582B004460068C7
:101920000168C368426901F02F05202D03F02005EE
:1019300006D12DB1204602B0BDE8B04000F06EBD2A
:101940005FEA017C1EBF02F0010E03F4907212EBFD
:101950000E026ED1226BCD0643D5012A41D113F080
:1019600010023ED00021019101680191416801916E
:1019700001994069400600F1CB80A08DE18DE28D98
:10198000002A00F01581884200F01281401A00BF41
:10199000216851E8031F226821F4907142E8031383
:1019A000002BF5D1216851E8051F226821F00101C3
:1019B00042E80513002BF5D1202184F842100021C4
:1019C000216300BF216851E8031F226821F0100144
:1019D00042E80313002BF5D1022281B22046626354
:1019E000DCE00A0640F1828013F0800200F07E8085
:1019F00094F84110212940F0DB80A168B1F5805FA7
:101A000003D12169002900F0DB80216A4A1C22628F
:101A100009784160E18C01390A04E18440F0C88012
:101A2000C16821F08001C160C16841F04001C1601E
:101A3000BEE0CA0718BF13F4807203D0626C42F094
:101A4000010262644A0706D5BEF1000F03D0626C42
:101A500042F0020262648A0706D5BEF1000F03D08D
:101A6000626C42F004026264BCF1000F06D55EEACB
:101A7000050203D0626C42F008026264626C002AC4
:101A800000F09680890604D51DB1204600F0C6FC02
:101A900020684069616C00F0400001F008014018C6
:101AA00000F08180204600F091FC206840694006EB
:101AB00040F18080206850E8050F216820F0400048
:101AC00041E80502002AF5D1E06B002872D042F20D
:101AD000C521C0F600014163FEF75DFD002867D017
:101AE000E06B416B02B0BDE8B040084749065FD5E6
:101AF00013F040015CD0C16821F04001C160202199
:101B0000204684F8411002B0BDE8B04000F0A1B911
:101B1000E06B016849688AB2002A49D0A38D9A42D5
:101B200046D2E1858069202831D000BF206850E886
:101B3000030F216820F4807041E80302002AF5D1E8
:101B4000206850E8050F216820F0010041E80502F7
:101B5000002AF5D1206850E8050F216820F04000E8
:101B600041E80502002AF5D1202084F84200002037
:101B7000206300BF206850E8030F216820F01000A8
:101B800041E80302002AF5D1E06BFEF7E4FC0220F5
:101B90006063A08DE18D401A81B2204602B0BDE89D
:101BA000B040FFF77FBE2046FFF7B5FE002060641F
:101BB00002B0B0BD204602B0BDE8B040FFF7ABBEFA
:101BC000216A31F8022B6FF35F224260216221E724
:101BD00058B310B5044690F8410028B9002084F8A5
:101BE0004000204600F023F8242084F841002068BB
:101BF000C16821F40051C160204600F070FC2068EB
:101C0000016921F490410161416921F02A0141619A
:101C1000C16841F40051C16000202021606484F853
:101C2000411084F84210606310BD012070472DE917
:101C3000F04385B040F600450446C4F20105006853
:101C4000A5F54441002788420497CDE90277019722
:101C500065D141F21800C4F20200416801AE41F4BE
:101C600080214160416840F21C0801F4802100910C
:101C700000990168C4F2020841F00801016000689F
:101C8000314600F00800009000984FF48060019009
:101C900002200290032004902846FEF7E5FE4FF450
:101CA0000060CDE90107284631460397FEF7DCFEC8
:101CB00040F6A02508F11400C2F2000580264FF47A
:101CC0000059C5E900072846C5E90276C5E9047749
:101CD000C5E90679FEF716FE08B1FEF737FCE563A5
:101CE0006C6240F6E425C2F2000510200021C5E92F
:101CF00000802846C5E90216C5E90411C5E90619A0
:101D0000FEF700FE08B1FEF721FC2720002100228B
:101D1000A5636C62FFF724F82720FFF711F805B0E0
:101D2000BDE8F08390F84230202B1CD14FF0010326
:101D3000D1B1CAB100230363816222218285C285A9
:101D4000436480F842100169006819B1C16841F428
:101D50008071C160416941F001014161C16841F098
:101D60002001C16000E002231846704770B50446A8
:101D7000006844F20041C4F20001884218BF70BDFF
:101D800040F28466C2F20006D6F8082206F5827593
:101D900028460E219047B6F8042220462946BDE881
:101DA0007040FFF7BFBF70472DE9F041044690F83F
:101DB000410020281CBF0220BDE8F0810D464FF0F5
:101DC0000100E1B31746D2B3002060642120984699
:101DD00084F84100FEF745FFA784E784A168074621
:101DE000B1F5805F01D1206988B32E46002500BF80
:101DF000E08CC0B1204680213A46434600F004FC06
:101E0000F8B92EB116F8010B2168486007E000BF51
:101E100035F8020B21686FF35F2048600026E08CE4
:101E20000138E084E4E7204640213A46434600F08A
:101E3000EBFB202184F84110002818BF0320BDE8E7
:101E4000F081202084F841000320BDE8F0810026C5
:101E5000CEE77047FEE780B582B041F21400C4F2CD
:101E600002000168002241F00101016000680021C8
:101E700000F00100019001980C20FEF771FF0C208A
:101E8000FEF75EFF0D2000210022FEF769FF0D2006
:101E900002B0BDE88040FEF753BF80B586B0002099
:101EA00041F21801CDE90400CDE90200C4F20201BB
:101EB0000A6842F020020A600A6802F020020192D9
:101EC000019A0A6842F004020A600A6802F00402F9
:101ED0000192019A0A6842F008020A60096801F05A
:101EE0000801019101993021CDE90210049040F6DA
:101EF0000040C4F2010002A9FEF7B6FD06B080BDA5
:101F000010B58CB040F6283042F600410024C2F2F1
:101F10000000C4F20101C0E900140321CDE903145B
:101F200001214FF6FF72CDE90514CDE9091403A98B
:101F3000CDE90044C0E90242C0E904448461CDE92E
:101F400007440B94FFF7E4FA08B1FEF7FFFA40F6F6
:101F50002830C2F200006946CDE90044FFF798FA44
:101F600008B1FEF7F3FA0CB010BD80B58CB040F6A6
:101F700070300021C2F200004FF08042C0E9002121
:101F800003224FF6FF73CDE903210122CDE90011B1
:101F9000C0E9021301618161CDE90521CDE9071195
:101FA000CDE909210B9103A9FFF7B2FA08B1FEF7B9
:101FB000CDFA40F67030C2F200006946FFF768FAC9
:101FC00008B1FEF7C3FA0CB080BD80B58CB040F606
:101FD000B83040F200420021C2F20000C4F2000218
:101FE000C0E9002103224FF6FF73CDE9032101224E
:101FF000CDE90011C0E9021301618161CDE905213C
:10200000CDE90711CDE909210B9103A9FFF780FA6A
:1020100008B1FEF79BFA40F6B830C2F200006946FC
:10202000FFF736FA08B1FEF791FA0CB080BD80B523
:102030008CB040F6004040F600020021C2F20000E1
:10204000C4F200024FF6FF73C0E900210122CDE97E
:102050000011C0E9021301618161CDE90321CDE9DD
:102060000521CDE90711CDE909210B9103A9FFF75E
:102070004FFA08B1FEF76AFA40F60040C2F20000DB
:102080006946FFF705FA08B1FEF760FA0CB080BDAB
:1020900080B58CB040F6484040F600420021C2F2C4
:1020A0000000C4F200024FF6FF73C0E900210122D4
:1020B000CDE90011C0E9021301618161CDE903217D
:1020C000CDE90521CDE90711CDE909210B9103A93E
:1020D000FFF71EFA08B1FEF739FA40F64840C2F29F
:1020E00000006946FFF7D4F908B1FEF72FFA0CB0EB
:1020F00080BD80B540F6904044F60001C2F2000079
:10210000C4F2000100234FF00C0C4FF4E13280E8E0
:102110000E00C0E90333C0E905C3C361FFF758FDF2
:1021200018B1BDE88040FEF711BA80BDFEE700009F
:10213000FEE770477047FEF79ABD000070B594B097
:1021400006AC04F110002821FEF745F901200690A5
:1021500000250B904FF4E0104FF480310226CDE9BA
:1021600010052046089109950795CDE90E61FEF707
:1021700061FF20B1EFF3108072B600BFFEE70F20C1
:10218000CDE901064FF48060CDE9040501A80221E4
:102190000395FEF721FE20B1EFF3108072B600BF69
:1021A000FEE77020C4F242200121016014B070BD2E
:1021B000704710B540F2FF7242F6004C0368C4F25B
:1021C000000240F6000EC4F2010C9042C4F2000E70
:1021D00006DD70450DD060450BD040F6004404E0AC
:1021E000B0F1804F05D040F20044C4F20004A04298
:1021F00003D14C6823F070032343904206DD704501
:102200000DD060450BD040F6004204E0B0F1804FA5
:1022100005D040F20042C4F20002904203D1CA68E5
:1022200023F4407313434C6923F08002D1F800E09B
:102230008B68224360450260C362C0F828E002D187
:102240000969CCF83010012141610169C90708BF53
:1022500010BD016921F00101016110BD10B540F20E
:102260007004C2F20004204600F09AFB40F6904150
:1022700004F58C70C2F20001BDE8104000F019BBFB
:1022800010B540F27004C2F20004204600F036FBA4
:1022900040F60040C4F201001021FEF7DDFC40F6DC
:1022A0009D21C2F2000108700138B0FA80F04009A7
:1022B00084F8DC032120FEF7C3FB2046BDE8104074
:1022C00000F046BB406A0021C185C184FFF723BBF3
:1022D00010B5446A2068416994F84120212A13D13D
:1022E00011F0800110D00020E08400BF206850E889
:1022F000030F216820F0C00041E80302002AF5D155
:10230000202084F841002068406994F84210222976
:1023100007D110F0400004D00020E085204600F0F6
:1023200055F8606C40F0100120466164BDE8104033
:10233000FFF7F1BA0168406A0968890630D40021C4
:10234000C18500BF016851E8031F026821F4807154
:1023500042E80313002BF5D1016851E8051F02681C
:1023600021F0010142E80513002BF5D1016851E885
:10237000051F026821F0400142E80513002BF5D14A
:10238000202180F84210016B012909D1016851E830
:10239000031F026821F0100142E80313002BF5D15E
:1023A00000214163016B012918BFFFF7DFBC818D5C
:1023B000FFF778BA406A01214163016B012918BF18
:1023C000FFF7F1BC818D4908FFF76CBA016851E84D
:1023D000031F026821F4907142E80313002BF5D12A
:1023E000016851E8051F026821F0010142E8051368
:1023F000002BF5D1016B01290AD100BF016851E81A
:10240000031F026821F0100142E80313002BF5D1ED
:10241000202180F8421000210163704790F842109B
:10242000222918BF704783680246B3F5805F08D140
:1024300052F8281F52F8183C002B48D003685B68FC
:1024400009E052F8281F13B90369002BF6D003687E
:102450005B6803F07F030B70116801311160C18D5F
:1024600001390A04C18500D070470168CA6822F0AA
:102470002002CA60CA6822F48072CA604A6922F0E7
:1024800001024A61202180F8421000214163026B61
:10249000012A18BFFFF76ABC81B00163016851E8E7
:1024A000031F026821F0100142E80313002BF5D14D
:1024B00001680A68D20606D5002200920A680092D6
:1024C000496800910099818D01B0FFF7EBB902686E
:1024D00052686FF35F2221F8022B8162BFE710B5CB
:1024E00004460068D4E902C22369016921F440511D
:1024F00011430161616943EA0C021143C26841F270
:102500000C639A431143C1604169A26921F440718F
:10251000114343F60002C4F201029042416102D02D
:10252000FEF70EFD01E0FEF71EFDD4E900231921A0
:1025300048439900B0FBF1F048F21F51C5F2EB118E
:10254000A0FB013463094FF69C74C0F6FF7403FBD3
:102550000400322404EB0010A0FB0101F02000EA8B
:10256000511000EB0310C1F343110844906010BDFB
:1025700070B582B0134600250446816283854564A8
:10258000222084F842000A462168E06B42F2353C82
:1025900042F2B53E42F2D126C0F6000CC0F6000E63
:1025A000C0F600060431C0E90ACEC0E90C65FEF7AA
:1025B000F7F9019520680168019140680190019840
:1025C000206948B1206850E8030F216840F480700A
:1025D00041E80302002AF5D1206850E8050F216880
:1025E00040F0010041E80502002AF5D1206850E8DA
:1025F000050F216840F0400041E80502002AF5D1AE
:10260000002002B070BD00002DE9F04182B080468C
:1026100000681D4603680E461940B1421CD017469B
:102620006C1C00BFA4B1FEF71CFB01464FF0030079
:102630009DB1C91BA94210D8D8F80000C16849074C
:1026400006D5402E04D0802E02D00168090707D499
:1026500001683140B142E5D1002002B0BDE8F0810F
:10266000002401940168019140680190019840465E
:10267000FFF7ACFE0820C8F8440088F8404001206D
:10268000EBE740F69040C2F20000FFF745B90000CA
:10269000FEE7000040F270000821C2F200004FF493
:1026A000805200BF42503831B1F5907FFAD180B5E9
:1026B0004FF48071A0F8181140F20111A0F8231115
:1026C0004FF48171A0F83A1140F20311A0F86011A3
:1026D0004FF48271A0F8B3114FF48871A0F824125E
:1026E000A52180F88012002108A2C0E9A11180F87C
:1026F0008C12DFF818C0D2E90131D2E903E2C0E957
:10270000FDC3C0E9FF1EC0F8042480BD0000000026
:102710000000374300005543000000000000B442B1
:102720002DE9F04381B004460068A1690068426A5F
:10273000501AA1886261B0EB510FA261206201DDE5
:10274000401A04E04A085242904201DA08442062EA
:10275000E169D4F808800E184645E66106DDA08CD4
:10276000A6EB0806E66100F1010909E0002E02D49B
:10277000B4F8249006E0A08C4644A0F10109E6617B
:10278000A4F82490304600F055FB0746404600F080
:1027900051FB05463846294600F06EFA0027C4F280
:1027A000B437394600F05EFB0FFA89F108FB01618E
:1027B000A062084600F03EFB294600F05DFA39466B
:1027C00000F050FB00F0CAF9C4E90C0101B0BDE80B
:1027D000F0832DE9F0410E46074608460021984651
:1027E00015460024FEF7D7FF30460421FEF7D3FF3D
:1027F00007F1140012213E60A7F80480BD60BC629E
:10280000C7E90C44FDF7E7FDBDE8F081F0B581B004
:102810009446A52280F8432240F69C22C2F2000290
:102820001F46137800F243265D1C157043F2FE022A
:1028300080F84632FF230024C0F60002A0F844725C
:10284000355DDBB26B40D35C0134042CF8D180F8E9
:102850004732A0F8481200F24A2061463A46FDF796
:1028600075FDF81D43F2FE124FF6FF71C0F600022F
:102870000346344614F8015B013B85EA0105EDB2DD
:1028800032F8155089B285EA1121F3D107F1090216
:1028900031542F0AB51840F6904092B2C2F20000AF
:1028A0003146142305F8017C01B0BDE8F040FFF784
:1028B0007BBA096843F60002C4F20102914216D0C5
:1028C00044F60002C4F2000291420BD044F20042EE
:1028D000C4F20002914218BF704740F28461C2F214
:1028E000000108E040F69001C2F2000103E040F26E
:1028F0007841C2F20001C0F864117047F0B581B0B0
:10290000044600F578760027E5192846FFF708FF0A
:10291000D5E90C0100F09CF87169024608461146A1
:1029200000F06CFB383746F8040BB7F58C7FEBD121
:10293000D4E9FB50014600F03DF9C4F8F003284605
:10294000294600F037F9C4F8EC0301B0F0BD0000EF
:102950002DE9F04184B00025804600F57876002707
:10296000C4F2C8250DF1050456F8040B294600F001
:1029700079FA00F043FA24F817000137052FF3D154
:1029800098F8DC030DF105028DF80F0008F58C7046
:1029900040F202311E23FFF739FF04B0BDE8F08199
:1029A00010B540F62831C2F200014FF480524FF6C4
:1029B000FF730446FFF70DFF40F6703104F1380055
:1029C000C2F200014FF480524FF6FF73FFF701FF90
:1029D00040F6B83104F17000C2F200014FF48052A9
:1029E0004FF6FF73FFF7F5FE40F6004104F1A80033
:1029F000C2F200014FF480524FF6FF73FFF7E9FE79
:102A000040F6484104F1E000C2F200014FF4805268
:102A10004FF6FF73BDE81040FFF7DBBEFEF734F959
:102A2000FFF78CFBFFF739FAFFF715FAFFF79DFA6E
:102A3000FFF7CBFAFFF7FBFAFFF75BFBFFF760FA54
:102A4000FFF726FBFFF70AFCFFF71AFCFCE7000084
:102A500021F0004201F00043A2F16052B2F5801F64
:102A600028BFD2F17F6C0BD95FEA001C43EAC20297
:102A700042EB507018BF704728BF20F0010070472C
:102A8000B2F5801FBCBF184670474FEA410C1CF5D9
:102A9000001F02D2084600F0ACBA70B500F009F889
:102AA00000000089FFF7F6BF4FF00040A0F580005E
:102AB00070470EF1020E2EF0030E5EF8046B3642E4
:102AC00005D4012A43EB030515F5001F12D8012890
:102AD00041EB010C1CF5001F0CD80ED14FEAD17C44
:102AE0000CEB4C0C0CF1020C15F5001F08BF4CEB65
:102AF000D37C04E04FF0080C01E04FEAD37C0CEBF0
:102B00004C0526FA05F606F00706B6F1040C06D2C7
:102B10000EEB860CBDE870404CF0010C6047DFE81E
:102B20000CF0090B02024FF00041A1F500214FF01B
:102B3000000070BD19461046012851EB010418BF72
:102B4000D4F5001484BF002001F0004170BD0808D6
:102B5000A0F500114FEA31017047000043004FEA31
:102B6000D30C4FEA3C0C43401FBF40070CF16051AF
:102B700013F0FE4F70471CF0006F03D10CF00041C2
:102B8000002070470CF0004343EA507040EACC004C
:102B900010B500F0E8F900BF000000924FEA000114
:102BA000FFF7D5BF4FF00041A1F500214FF0000025
:102BB0007047000090EA010F48BF81F0004100F12A
:102BC0002482421A3CBF801A89184FEAD052A2EBE5
:102BD000D1534FF07F4C1CEA410F18BF9CEA026FA3
:102BE00000F03B804FF0004C4CEA00204CEA012101
:102BF00021FA03FC10EB0C0C1ED202F1FF325FEA4B
:102C00001C2040EBC25038BF70471CF07F0F4FEACA
:102C1000400C18BFBCF17F4F38BF7047C3F1200391
:102C2000994008BF20F00100BCF17F4F38BF7047CA
:102C3000A0F1C04000F0DDB94FEA3C00000A40EBD3
:102C4000C25028BF1CF0FF0F4FEA400CE6D018BF5F
:102C5000BCF17F4F38BF7047EAE79CEA026F05D0AE
:102C600010EA5C0F08BF00F00040704710B500F09C
:102C70007AF900BF64FBBE3E4FF47F0C1CEAD01211
:102C80001EBF1CEAD11392EA0C0F93EA0C0F00F05E
:102C9000858090EA010F48BF42F4807240F4000C36
:102CA00041F400002CF07F4120F07F4000B5A2EB02
:102CB000030281420FF2081CACEB504E9EF800E07C
:102CC000C0F100004FEA4E0E00FB0EFC38BF490079
:102CD0004FEA2C1C0CFB0EF34FEACE1E0EEB635E8C
:102CE0004FEA112C0EFB0CFC4FEAC1214FEA1C539A
:102CF00000FB031102F5FA024FEA112C0EFB0CFC4B
:102D00004FEA01314FEADC4C00FB0C1142EB22424E
:102D1000C14228BF09184CEB03335DF804EB10EBFC
:102D2000410143EBC250B2F57C0F38BF704729D543
:102D300012F0F00F1CBF00F1C04000F000407047DF
:102D4000008182838485868788898B8C8D8E8F9184
:102D50009293959697999A9C9D9FA0A2A3A5A7A8A8
:102D6000AAACAEB0B2B3B5B7B9BCBEC0C2C5C7C9D4
:102D7000CCCED1D4D7D9DCDFE2E6E9ECF0F3F7FA38
:102D8000FE0000004FEA400C0CF1807CBCF17E4F4D
:102D900028BF7047B0F1C04000F02BB90CEAD11346
:102DA00090EA010F48BF42F48072624538BF634524
:102DB00007D213F47F0F16D080EA010000F0004024
:102DC000704710B500F0CFF8097EFC3E00F005B862
:102DD00080EA010000F00040704780EA010000F046
:102DE000004000F006B912F47F0F04BF024870479C
:102DF00080EA010000F0FDB80000C07F41000B0E2A
:102E0000D3F19E0208D950F400034FEA032323FABA
:102E100002F048BF4042704710B500F0A4F800BF70
:102E200049922480002070476FF0004282EA20001F
:102E30007047000010F0004148BF4042B0FA80F3F4
:102E400010FA03F2C3F19D030BD051EAC35101EB19
:102E50001220530638BF704700F1010008BF20F070
:102E6000010070474FF47F0C1CEAD0121EBF1CEA11
:102E7000D11392EA0C0F93EA0C0F00F0478090EA0E
:102E8000010F48BF42F480724FF0004C4CEA002022
:102E90004CEA012102EB0302A0FB0113A2F50002A0
:102EA000002918BF43F001035B0028BF4FEA33033A
:102EB00042EB22425FEA132C4CEBC2502EBFBCEB1C
:102EC000436FB2F57C0F70474FEA036CBCF1004FC3
:102ED00008BF20F00100B2F57C0F38BF70470BD55A
:102EE00082F0FF0212F5803FC8BF704700F1C0407A
:102EF000D8BF00F00040704700F5000C5FEA4C0CB2
:102F000048BF7047B0F1C04000F073B80CEAD1136D
:102F100090EA010F48BF42F48072624538BF6345B2
:102F200004D280EA010000F00040704710B500F0C4
:102F30001AF800BF8900013E00F007B800F009B898
:102F40005FEA410C5FEA1C6C08D080EA010000F0E7
:102F500050B85FEA400C5FEA1C6CF6D14FF00040BD
:102F6000A0F5800070470EF1020E2EF0030E5EF801
:102F7000044B244204D44FEA4102B2F17F4F11D8EE
:102F80004FEA4003B3F17F4F0CD80ED14FEAD07C0B
:102F90000CEB4C0C0CF1020CB2F17F4F08BF4CEB68
:102FA000D17C04E04FF0080C01E04FEAD17C0CEB3F
:102FB0004C0324FA03F404F00704B4F1040C06D221
:102FC0000EEB840CBDE810404CF0010C6047DFE8CC
:102FD0000CF0070802024FF00040A0F5800010BD81
:102FE0000846420018BFD2F1807288BF00F000404E
:102FF00010BDFF2141EAD050C005704790EA010F93
:1030000048BF81F000413FF5DCAD421A04D882F0A0
:103010000042A0EB020011444FEAD052A2EBD15380
:103020004FF07F4C1CEA410F18BF9CEA026F4AD058
:103030004FF0004C4CEA00204CEA012121FA03FC3D
:10304000B0EB0C0C0FD412F0FE0F36D05FEA4C0040
:103050001DD5001240EBC25038BF70471CF03F0F27
:1030600018BF70470BE05FEA1C20A2F1010240EBA1
:10307000C25038BF70471CF07F0F18BF7047C3F1B4
:103080002003994014BF401E20F0010070474FEA12
:103090001223800808BF7047B0FA80FCA2EB0C0234
:1030A000CCF1280C60FA0CF093EA122F04BF00EB6D
:1030B000C25070474FEAC3707047130A5FEADC10D2
:1030C00008BF7047F6E79CEA026F04D010EA5C0F75
:1030D00008BF0020704710B5FFF745FF40DFF63E00
:1030E00081F0004070470000000000000000010275
:1030F0000304060708090000000001020304005E43
:10310000BCE2613FDD83C29C7E20A3FD1F419DC3C5
:10311000217FFCA2401E5F01E3BD3E6082DC237D77
:103120009FC1421CFEA0E1BF5D0380DE3C62BEE0A9
:10313000025CDF81633D7C22C09E1D43A1FF4618D7
:10314000FAA427799BC584DA3866E5BB5907DB8585
:103150006739BAE406581947A5FB7826C49A653B37
:10316000D987045AB8E6A7F91B45C6987A24F8A669
:10317000441A99C7257B3A6486D85B05E7B98CD297
:10318000306EEDB3510F4E10F2AC2F7193CD114F45
:10319000ADF3702ECC92D38D6F31B2EC0E50AFF1F7
:1031A000134DCE90722C6D33D18F0C52B0EE326C29
:1031B0008ED0530DEFB1F0AE4C1291CF2D73CA9457
:1031C0007628ABF517490856B4EA6937D58B570905
:1031D000EBB536688AD495CB2977F4AA4816E9B7B7
:1031E000550B88D6346A2B7597C94A14F6A8742AE9
:1031F000C896154BA9F7B6E80A54D7896B35000075
:10320000891112239B322446AD573665BF74488C12
:10321000C19D5AAFD3BE6CCAE5DB7EE9F7F88110D9
:10322000080193331A22A5562C47B7753E64C99CF2
:10323000408DDBBF52AEEDDA64CBFFF976E80221B8
:103240008B30100299132667AF763444BD554AADD2
:10325000C3BC588ED19F6EEBE7FA7CC8F5D9833199
:103260000A2091121803A7772E66B5543C45CBBDB2
:1032700042ACD99E508FEFFB66EAFDD874C9044278
:103280008D5316619F702004A9153227BB364CCE92
:10329000C5DF5EEDD7FC6888E1997AABF3BA855259
:1032A0000C4397711E60A1142805B3373A26CDDE72
:1032B00044CFDFFD56ECE9986089FBBB72AA066338
:1032C0008F7214409D512225AB343006B9174EEF52
:1032D000C7FE5CCCD5DD6AA9E3B8788AF19B877319
:1032E0000E6295501C41A3352A24B1163807CFFF32
:1032F00046EEDDDC54CDEBB962A8F99A708B0884F8
:1033000081951AA793B62CC2A5D33EE1B7F0400829
:10331000C919522BDB3A644EED5F766DFF7C8994C0
:1033200000859BB712A6ADD224C3BFF136E0C11809
:103330004809D33B5A2AE55E6C4FF77D7E6C0AA59F
:1033400083B4188691972EE3A7F23CC0B5D14229E9
:10335000CB38500AD91B666FEF7E744CFD5D8BB580
:1033600002A499961087AFF326E2BDD034C1C339C9
:103370004A28D11A580BE77F6E6EF55C7C4D0CC65F
:1033800085D71EE597F42880A1913AA3B3B2444AA9
:10339000CD5B5669DF78600CE91D722FFB3E8DD640
:1033A00004C79FF516E4A9902081BBB332A2C55A89
:1033B0004C4BD7795E68E11C680DF33F7A2E0EE71F
:1033C00087F61CC495D52AA1A3B03882B193466B69
:1033D000CF7A5448DD59622DEB3C700EF91F8FF700
:1033E00006E69DD414C5ABB122A0B9923083C77B49
:1033F0004E6AD5585C49E33D6A2CF11E780F0000F7
:10340000283400080000002010000000B40100086B
:103410003834000810000020D0120000D401000849
:1034200075F2FFFF0000000000127A0001000000AA
:08343000100000000000000084
:04000005080001519D
:00000001FF
